:020000040000fa
:080000000002040000000000f2
:020000040000fa
:040008001e030000d3
:020000040000fa
:04000c0034030000b9
:020000040000fa
:04001000e204000006
:020000040000fa
:040014004a0300009b
:020000040000fa
:040018006003000081
:020000040000fa
:04001c00e2040000fa
:020000040000fa
:04002000e2040000f6
:020000040000fa
:04002400e2040000f2
:020000040000fa
:04002800e2040000ee
:020000040000fa
:04002c004404000088
:020000040000fa
:04003000e2040000e6
:020000040000fa
:04003400e2040000e2
:020000040000fa
:04003800e2040000de
:020000040000fa
:04003c00e2040000da
:020000040000fa
:04004000e2040000d6
:020000040000fa
:04004400e2040000d2
:020000040000fa
:04004800e2040000ce
:020000040000fa
:04004c00e2040000ca
:020000040000fa
:04005000e2040000c6
:020000040000fa
:04005400e0030000c5
:020000040000fa
:04005800760300002b
:020000040000fa
:04005c00e2040000ba
:020000040000fa
:04006000e2040000b6
:020000040000fa
:04006400e2040000b2
:020000040000fa
:04006800e2040000ae
:020000040000fa
:04006c00e2040000aa
:020000040000fa
:04007000e2040000a6
:020000040000fa
:04007400e2040000a2
:020000040000fa
:04007800e20400009e
:020000040000fa
:04007c00e20400009a
:020000040000fa
:04008000e204000096
:020000040000fa
:04008400e204000092
:020000040000fa
:04008800e20400008e
:020000040000fa
:04008c00e20400008a
:020000040000fa
:04009000e204000086
:020000040000fa
:04009400e204000082
:020000040000fa
:04009800e20400007e
:020000040000fa
:04009c00e20400007a
:020000040000fa
:0400a000e204000076
:020000040000fa
:0400a400e204000072
:020000040000fa
:0400a800e20400006e
:020000040000fa
:0400ac00e20400006a
:020000040000fa
:0400b000e204000066
:020000040000fa
:0400b400e204000062
:020000040000fa
:0400b800e20400005e
:020000040000fa
:0400bc00e20400005a
:020000040000fa
:0400c000e204000056
:020000040000fa
:0400c400e204000052
:020000040000fa
:0400c800e20400004e
:020000040000fa
:0400cc00e20400004a
:020000040000fa
:0400d000e204000046
:020000040000fa
:0400d400e204000042
:020000040000fa
:0400d800e20400003e
:020000040000fa
:0400dc00e20400003a
:020000040000fa
:0400e000e204000036
:020000040000fa
:0400e400e204000032
:020000040000fa
:0400e800e20400002e
:020000040000fa
:0400ec0026040000e6
:020000040000fa
:0400f000e204000026
:020000040000fa
:0400f400e204000022
:020000040000fa
:0400f800e20400001e
:020000040000fa
:0400fc00e20400001a
:020000040000fa
:04010000e204000015
:020000040000fa
:04010400e204000011
:020000040000fa
:04010800e20400000d
:020000040000fa
:04010c00e204000009
:020000040000fa
:04011000e204000005
:020000040000fa
:04011400e204000001
:020000040000fa
:04011800e2040000fd
:020000040000fa
:04011c00e2040000f9
:020000040000fa
:04012000e2040000f5
:020000040000fa
:04012400e2040000f1
:020000040000fa
:04012800e2040000ed
:020000040000fa
:04012c00e2040000e9
:020000040000fa
:04013000e2040000e5
:020000040000fa
:04013400e2040000e1
:020000040000fa
:04013800e2040000dd
:020000040000fa
:04013c00e2040000d9
:020000040000fa
:04014000e2040000d5
:020000040000fa
:04014400e2040000d1
:020000040000fa
:04014800e2040000cd
:020000040000fa
:04014c00e2040000c9
:020000040000fa
:04015000e2040000c5
:020000040000fa
:04015400e2040000c1
:020000040000fa
:04015800e2040000bd
:020000040000fa
:04015c00e2040000b9
:020000040000fa
:04016000e2040000b5
:020000040000fa
:04016400e2040000b1
:020000040000fa
:04016800e2040000ad
:020000040000fa
:04016c00e2040000a9
:020000040000fa
:04017000e2040000a5
:020000040000fa
:04017400e2040000a1
:020000040000fa
:04017800e20400009d
:020000040000fa
:04017c00e204000099
:020000040000fa
:04018000e204000095
:020000040000fa
:04018400e204000091
:020000040000fa
:04018800e20400008d
:020000040000fa
:04018c00e204000089
:020000040000fa
:04019000e204000085
:020000040000fa
:04019400e204000081
:020000040000fa
:04019800e20400007d
:020000040000fa
:04019c00e204000079
:020000040000fa
:0401a000e204000075
:020000040000fa
:0401a400e204000071
:020000040000fa
:0401a800e20400006d
:020000040000fa
:0401ac00e204000069
:020000040000fa
:0401b000e204000065
:020000040000fa
:0401b400e204000061
:020000040000fa
:0401b800e20400005d
:020000040000fa
:0401bc00e204000059
:020000040000fa
:0401c000e204000055
:020000040000fa
:0401c400e204000051
:020000040000fa
:0401c800e20400004d
:020000040000fa
:0401cc00e204000049
:020000040000fa
:0401d000e204000045
:020000040000fa
:0401d400e204000041
:020000040000fa
:0401d800e20400003d
:020000040000fa
:0401dc00e204000039
:020000040000fa
:0401e000e204000035
:020000040000fa
:0401e400e204000031
:020000040000fa
:0401e800e20400002d
:020000040000fa
:0401ec00e204000029
:020000040000fa
:0401f000e204000025
:020000040000fa
:0401f400e204000021
:020000040000fa
:0401f800e20400001d
:020000040000fa
:0401fc00e204000019
:020000040000fa
:04020000e204000014
:020000040000fa
:04020400e204000010
:020000040000fa
:04020800e20400000c
:020000040000fa
:04020c00e204000008
:020000040000fa
:04021000e204000004
:020000040000fa
:04021400e204000000
:020000040000fa
:04021800e2040000fc
:020000040000fa
:04021c00e2040000f8
:020000040000fa
:04022000e2040000f4
:020000040000fa
:04022400e2040000f0
:020000040000fa
:04022800e2040000ec
:020000040000fa
:04022c00e2040000e8
:020000040000fa
:04023000e2040000e4
:020000040000fa
:04023400e2040000e0
:020000040000fa
:04023800e2040000dc
:020000040000fa
:04023c00e2040000d8
:020000040000fa
:04024000e2040000d4
:020000040000fa
:04024400e2040000d0
:020000040000fa
:04024800e2040000cc
:020000040000fa
:04024c00e2040000c8
:020000040000fa
:04025000e2040000c4
:020000040000fa
:04025400e2040000c0
:020000040000fa
:04025800e2040000bc
:020000040000fa
:04025c00e2040000b8
:020000040000fa
:04026000e2040000b4
:020000040000fa
:04026400e2040000b0
:020000040000fa
:04026800e2040000ac
:020000040000fa
:04026c00e2040000a8
:020000040000fa
:04027000e2040000a4
:020000040000fa
:04027400e2040000a0
:020000040000fa
:04027800e20400009c
:020000040000fa
:04027c00e204000098
:020000040000fa
:04028000e204000094
:020000040000fa
:04028400e204000090
:020000040000fa
:04028800e20400008c
:020000040000fa
:04028c00e204000088
:020000040000fa
:04029000e204000084
:020000040000fa
:04029400e204000080
:020000040000fa
:04029800e20400007c
:020000040000fa
:04029c00e204000078
:020000040000fa
:0402a000e204000074
:020000040000fa
:0402a400e204000070
:020000040000fa
:0402a800e20400006c
:020000040000fa
:0402ac00e204000068
:020000040000fa
:0402b000e204000064
:020000040000fa
:0402b400e204000060
:020000040000fa
:0402b800e20400005c
:020000040000fa
:0402bc00e204000058
:020000040000fa
:0402c000e204000054
:020000040000fa
:0402c400e204000050
:020000040000fa
:0402c800e20400004c
:020000040000fa
:0402cc00e204000048
:020000040000fa
:0402d000e204000044
:020000040000fa
:0402d400e204000040
:020000040000fa
:0402d800e20400003c
:020000040000fa
:0402dc00e204000038
:020000040000fa
:0402e000e204000034
:020000040000fa
:0402e400e204000030
:020000040000fa
:0402e800e20400002c
:020000040000fa
:0402ec00e204000028
:020000040000fa
:0402f000e204000024
:020000040000fa
:0402f400e204000020
:020000040000fa
:0402f800e20400001c
:020000040000fa
:0402fc00e204000018
:020000040000fa
:04030000e204000013
:020000040000fa
:04030400e20400000f
:020000040000fa
:04030800e20400000b
:020000040000fa
:04030c00e204000007
:020000040000fa
:04031000e204000003
:020000040000fa
:04031400e2040000ff
:020000040000fa
:04031800e2040000fb
:020000040000fa
:04031c003c0400009d
:020000040000fa
:04032000e2040000f3
:020000040000fa
:04032400e2040000ef
:020000040000fa
:04032800e2040000eb
:020000040000fa
:04032c00e2040000e7
:020000040000fa
:04033000e2040000e3
:020000040000fa
:04033400e2040000df
:020000040000fa
:100400002f1a21000eff26000e01880000000000b8
:10041000000020000000e000020032000001200087
:100420002002880014000700aa0107000000e00075
:1004300003003a00c00d2200010020000200370036
:100440000000200001002000810f70000100320038
:100450000f000700000020000000e0000200320052
:100460000000020000000000c01b020000000000ad
:100470000040da000000fe00401a20000000e0000a
:1004800002003200002020009001880000000600d9
:10049000a1028800800478000000eb001f003700f4
:1004a000e284440054a0b4009905ba00e2844400f8
:1004b00054a0b4009906ba00e284440054a0b400e9
:1004c0000006eb00476fde00fd07b200ae018800ba
:1004d000636ce10003003a000ad801000000eb0061
:1004e0000e003700606ce10008003a00004deb00a0
:1004f0000a05e800020039003420ec000af0a000f0
:100500008b05e900f9ff3e00040037006168e10057
:10051000010032000086eb000b00070019c7ba008b
:100520001905ba000e04e00003003a000a00e000da
:10053000dbff3a0000000600fe07b200ae028800b2
:100540008a047800f5ff37000cd0a300e20f4d00bd
:100550001c00390089027800354dba000a05e80010
:10056000020039003420ec000af0a0008b05e900fd
:100570000f003200254dba000a05e80002003900dc
:100580003420ec000af0a0008b05e90008003200de
:100590000c00e0000600320015cdba000a05e800a4
:1005a000020039003420ec000af0a0008b05e900bd
:1005b0008984e80054a0b4000b00e000e2ff3a0098
:1005c000000006009902ba00055d78008b05e9007d
:1005d000f7ff3200c82ade00055d78008b05e900d0
:1005e000f3ff32000c00e000f1ff320019ddba0029
:1005f000eeff37002c1f040000000000561c040012
:1006000000000000be1d040000000000161e0400d3
:1006100000000000701e040000000000fe05040041
:10062000000000002a06040000000000a4120400dc
:100630000000000000000400000000003200f8008c
:100640003400f800881f780018002000a8018800f6
:100650000820200008d0fe004f0478000000fa00b7
:10066000c028a900ffff37003200f8003400f8006e
:10067000881f780018002000a801880008202000aa
:1006800008d0fe004f0478000000fa00c068a900fe
:10069000ffff37003200f8003400f800881f7800b0
:1006a00018002000a80188000820200008d0fe00c3
:1006b0004f0478000000fa00c048a900ffff37008f
:1006c0003200f8003400f800881f7800180020007d
:1006d000a80188000820200008d0fe004f04780000
:1006e0000000fa00c088a900ffff3700809fbe000d
:1006f0000000fa00518b8000408b8000808f5000fa
:1007000010003a00618b8000001020000080600023
:100710000000e0000b003a0000000000e111800042
:1007200000082000008060000000e000fbff3200b5
:10073000608b80000090a000608b88002188a90059
:100740001c0037000188a90014003700508b80007e
:10075000104078000080fb0040128800508b800021
:100760000000e800508b8800518b8000601721004a
:10077000808f500002003a00e0162100508b880064
:10078000608b80000080a100608b8800518b80000e
:10079000408b8000808f500005003200f0118000f7
:1007a000700060000000e000e8ff32000100370048
:1007b000000000000080fa004f00be00004006006c
:1007c000809fbe000000fa0018003700208b8000d8
:1007d000211280008140780001487800208b800041
:1007e0000000e800208b8800218b8000e0172100aa
:1007f000808f500002003a0060172100208b880093
:10080000608b80000010a100608b8800218b80002d
:10081000308b8000808f500004003a00608b800095
:100820000000a000608b880004003700f0118000f9
:10083000620060000000e000e4ff32000168a900ef
:100840000080fa004f00be0000400600801f7800c4
:100850000000fa00e0118000620060000000e0008b
:10086000010032003c22a9000628a9000080fa00fd
:100870004f007800004006000000fa0017a8a90009
:100880000080fa00004006003600f800809fbe009d
:10089000829fbe00849fbe00869fbe003200f8008b
:1008a0003400f80010002000a00188000020200083
:1008b00000d0fe000200fa000040eb00004f78007c
:1008c000330037001e80fb00ea00b900800078008a
:1008d000400b210000804000100078000000e00084
:1008e0002a0032001e81fb00ea10b900e600400039
:1008f000400b2100008040001000be00610040005d
:10090000e0804800ea11b90082017800a20b2100c2
:10091000028141000089be001e80fb00ea00b90090
:10092000e6004000400b2100008040001001be00a6
:100930001e80fb00ea00b9008080e800400b210027
:10094000008040001000be00800f5100818f5900d0
:100950000e003a001e80fb00ea00b900800078001b
:10096000400b2100008040001000780000000100d2
:100970001e80fb00ea00b90080007800a00b210077
:10098000008140006000b8000089be001e4fe800f2
:100990001e407800e94f5000caff36000028a90029
:1009a0000080fa003400f9003200f9004f03be0065
:1009b0004f02be004f01be004f00be003600f900de
:1009c000004006000040da000000fe000a00fa00c5
:1009d00011002000b1bf9f00c0bf9f006a80570078
:1009e000900707004fb897000080fa00000006004b
:1009f0000a00fa0051002000b1bf9f00c0bf9f0055
:100a00006a805700890707005fb897000080fa00e6
:100a100000000600889fbe0080047800008d8000e2
:100a20000000e00004003a000e0007000084eb0024
:100a30000000e00008003500088d80000900e0009b
:100a40000500320009004400060007000000e00035
:100a500001003d000084eb00080078004f04be0058
:100a600000000600800078000100e00003003a006a
:100a700000002000008d8800000005000080eb00d1
:100a800002002000828f500002003e00018d88008d
:100a90000000eb00000006000600fa00000f7800de
:100aa000110798002207980000000000e111800063
:100ab00000082000008060000000e000fbff320022
:100ac0001e009000ae009000050a07000080fa00aa
:100ad00000000600000005006022b80006022000a9
:100ae0000000d0008180d2000482d2008582d20032
:100af0000000a0000202520083825a00030031006d
:100b00000202420083824a000000a1000603e900bd
:100b1000f3ff3a0000000600800178000200370071
:100b2000815978000201e9000200e000fcff3a0070
:100b30000000060041052100a102070080007800a6
:100b40000080eb000100e0000400350041052100b9
:100b5000a0002000020007004f80de000000060019
:100b6000889fbe008a1f78000004be00c900900064
:100b700069009000808f500006003900090078005d
:100b800058030700800078000080eb000100e000bf
:100b90001700350008457800490090000858780093
:100ba000c00498001900780000b8a30004003a00bf
:100bb00000a8a30008003200ea4f540006003a00e3
:100bc0000900780043020700800078000080eb00f5
:100bd0000100e00006003a0000c02000190060009b
:100be0000200320049009000e00498000a80fb00f7
:100bf0004f0578004f04be0000000600889fbe002d
:100c000000047800010078008204780088017800f0
:100c10000901780011002000b1020700890f50007f
:100c2000010032000004eb00080078004f04be0011
:100c3000000006000000fa00e88157004fb9970055
:100c400041052100e05f2000cc0007000080fa0091
:100c500000000600889fbe00000478000203be006a
:100c600081047800080278008901780012002000d1
:100c70000600be0075050700890f50000100320014
:100c80000004eb00080078004f04be0000000600de
:100c90006800fa00889fbe008a9fbe00800478002a
:100ca000010478008205780003057800840078004c
:100cb00000f92f000f00400062050700d98f9f0048
:100cc000fb8f9f000000eb00a09f9f00e88f9f001c
:100cd0009a84fb000904fb008904ea00cf4cde0083
:100ce00050022000800f54000d003200e18f5400ac
:100cf0000b003a00090178008a0078007f8897008d
:100d0000df89970003000100f08f9f000000e000e2
:100d1000950032002f9897000000e800a09f9f00e8
:100d20000905450050022000800f540004003200e5
:100d30000800e000e6ff3a002f9897008b0037008c
:100d40000000eb00809f9f00f0979f00e0979f00be
:100d5000d0979f00c0979f00b0979f000700370073
:100d600021192100010050000000400061182100fd
:100d7000808040004f98970011007000c09f9f0036
:100d80000a04780008057800ba4478008900fb005e
:100d900020192100b70207000000e000f0ff3a0030
:100da000a1c2b30081cf54000e003a008f88970093
:100db0000180e900808f9f0010007800b09f9f00a5
:100dc0000000e00005003d000000ea00b09f9f0029
:100dd0004f9897000020a000c09f9f000804e800e3
:100de00010003700b09f9f00880078000000eb00e3
:100df00005003700f3ff2700830f50000200320088
:100e0000ea00b90000004100010478008800780081
:100e10003101fb000203b100e90f5100f5ff36007c
:100e2000b09f9f00e0c2b300984f10000200320054
:100e30000080eb0019003700a0c2b300d84f1000ab
:100e400007003a008f8897000180e900808f9f009b
:100e500010007800909f9f000804e8001000370001
:100e60000000eb00909f9f0088007800050037008d
:100e7000f3ff2700830f500002003200ea00b900a0
:100e80000000410001047800880078003101fb0077
:100e90000203b100e90f5100f5ff3600909f9f005b
:100ea000984478008900fb00e017210071020700d8
:100eb0000000e000020032000804e80001003700f2
:100ec0008044eb00a97f9f0080c6b30080cf540010
:100ed00006003a0098cf140010003a006640500017
:100ee000a07f9f000804e8000c003700c0c6b300d4
:100ef00080cf540009003a0098cf140007003a0050
:100f000067404000d84f100002003a006e40500089
:100f10000100370010c7b300a07f9f001801fb003d
:100f2000c3fb2f008f81410001f92f008f8040000b
:100f300020f92f000f004000150007000000e0001e
:100f400009003a00c1fb2f008f80400020f92f00dc
:100f50000f004000e10307000000e0000200350040
:100f60000805e8005aff37000080eb004f05be007f
:100f70004f04be000080fa00000006000302780063
:100f80008201780001017800a162200040ff370053
:100f9000889fbe008a1f7800000478000100780056
:100fa00082407800e2c6b30082cf5000c700320012
:100fb00015003c006b41510082cf500024003200ec
:100fc0000a003c007041510082cf50000001320005
:100fd0006541410082cf50006d00320050c2b30025
:100fe00080cf50002f013a002b01370042c6b300da
:100ff00082cf50001c0032006541410082cf50007a
:1010000028013a001800370032c7b30082cf5000e1
:10101000ef00320007003c006441510082cf5000d5
:101020005b0032000241e80082cf50001d013a000f
:10103000d900370052c7b30082cf500054003200ad
:101040006341410082cf500016013a005000370042
:101050009080e90001087800280890008081410014
:10106000914978001501370008699000c4c6b300a3
:10107000844f510007003a001002780064015200ca
:10108000020878001202be004fabde008603780033
:101090001100370014c7b300844f51000300320021
:1010a000a4c6b300844f510006003a001002780035
:1010b00068015200020878003202be002203be001e
:1010c000050037001081e90002087800120278005c
:1010d000cfa2de00612bb900049cbe000694be00c6
:1010e0000868900082c6b300824f50000d003200a5
:1010f00022c6b300824f500004003a000402fb00f5
:10110000cfa2de00612bb9000800370042c7b30050
:10111000824f50000300320066414100824f500070
:1011200004003a00cfa2de00612bb900049cbe008f
:101130000694be003802be002803be0028089000b6
:10114000e00f5200e08f5a00e00f5b00e08f5b0081
:1011500003003d0000814100d4c2b3000a00370003
:10116000381190000218a3000300320000814100f2
:10117000b4c2b300040037000208a3004f003200dd
:101180000081410004c2b3000449780049003700df
:1011900008699000c4c6b300844f510006003a00ad
:1011a0001002780064015200020878001202be00aa
:1011b0006033b8001100370014c7b300844f5100ea
:1011c00003003200a4c6b300844f510006003a0069
:1011d0001002780068015200020878003202be0056
:1011e0002203be00050037001081e90002087800e4
:1011f000120278008002eb006033b800049cbe004d
:101200000694be000868900082c6b300824f50006a
:101210000d00320022c6b300824f500004003a0095
:101220000482fb008002eb006033b8000800370046
:1012300042c7b300824f50000300320066414100b4
:10124000824f500004003a008002eb006033b80087
:10125000049cbe000694be00381090000038a30025
:10126000160032003802be002803be00e00f520014
:10127000e08f5a00e00f5b00e08f5b000f00320050
:1012800080c7b30080cf50000300320080c5b30098
:1012900080cf500009003a002808900000814100ea
:1012a00004c3b300044978000000e8000081410055
:1012b000014978000000e800200c98002808900000
:1012c00080814100730498003e0037000869900057
:1012d000c3c6b3009080e900834f51002200320062
:1012e0000a003c00e4c15100834f51002500320048
:1012f00083c1e800834f510013003200e8c1510060
:10130000834f51001e003a000a00370043c7b30064
:10131000834f51001b003200e6c14100834f510052
:1013200018003200e9c15100834f510014003a0007
:10133000050037000108780011007800286490004b
:10134000084878005f003700010878001100780035
:1013500018129000cfa2de00612bb9000498be00e5
:101360000690be0057003700010878001100780091
:1013700018119000cf91de000288be0051003700a6
:101380009080e9000108780011007800181490009e
:10139000080878004b0037009080e90001087800c9
:1013a00011027800cfa2de00612bb900049cbe00c0
:1013b0000694be00280890008081410073049800c4
:1013c00081c7b300080078008d0107003d00370099
:1013d0000869900051c6b300814f51001a003a00cd
:1013e00010017800e4005100010878001100be00ef
:1013f000000c9800110c9800881190000300e00088
:1014000007003d008081eb000001eb003205070082
:101410000001be00880890008100510008003700dc
:101420000001eb002c050700008170000300320072
:1014300008099000820050000100370088109000d9
:10144000410c98001f0037009080e90001087800e7
:10145000110578007a049800881490000900e000d3
:1014600004003d000a0078000e01070080047800a7
:1014700007003700090178008000eb000a007800bf
:10148000eb0007000000e000010032008a04500079
:10149000490c98000b00370028089000808141001b
:1014a0000500370028089000808141000104e00019
:1014b00001003a0051c2b300814978000000e80001
:1014c000200c98000000eb004f0578004f04be0090
:1014d00000000600889fbe008a1f78000004780084
:1014e0000800e0000d003a00280a210070054400c1
:1014f0008004eb00580078000000e0000400320097
:10150000f4ff07000000e00001003d008084eb00d4
:101510008a0f5400f7ff3a00250037000000220030
:10152000180060008004eb0021003200a804900045
:101530000f00370009015100384090000000fb0007
:101540008900780054fd07000000e00007003c001f
:10155000280090004004980060049800500c980007
:101560001890a0008084eb001100370080844400b4
:1015700048019000828f5400eeff3900280090004f
:10158000400498009800780002c0200002816000aa
:1015900001003a003800900001e8a3000200320088
:1015a0006004980001003700500c98008004eb00a4
:1015b000090078004f0578004f04be0000000600c7
:1015c000889fbe008a9fbe008004780001047800d6
:1015d0002c003700c800900068009000808f5000f9
:1015e0000400390008007800be0007000000e00099
:1015f000370035000040200018006000090032006c
:10160000a100200009007800ac00070080057800e8
:101610000b00e00003003200618514000a854500dc
:1016200004003700090078009e00070000057800dc
:101630008005eb0048009000e8009000808050009a
:101640008a8f500002003100010578008005eb0010
:101650000a017800890078007f00070048009000a8
:101660000a004000400498000b00e0000400320033
:101670000800780097ff07000000e00014003a001f
:101680008a8444001904e000d2ff3a000080200060
:101690001800600006003200080078008dff070087
:1016a000800078000080eb000100e00009003a00b3
:1016b00001c02000988060000000eb0005003200af
:1016c00048009000600498000000eb000100370023
:1016d0000080eb004f05be004f04be000000060076
:1016e000889fbe008a9fbe008c9fbe008e1f780020
:1016f0000006780001047800020078008304780076
:101700008881b900020778000e00e0004200320034
:101710000800e000410032008e057800c90090000a
:1017200069009000808f50000400390009007800a3
:101730006c0007000000e000290035000040200098
:10174000190060000a0032000b017800a10020009f
:101750000c00780036000700800678000d00e000dd
:1017600006003200610516000a85460004003700b5
:101770000b0578008006eb00010037000b057800b0
:1017800049009000e9009000808050008a8f50004e
:1017900002003100010578008006eb000a017800a4
:1017a0008c0078002c0007008a85550049009000c5
:1017b0000a004000c00498000d00e0000400320060
:1017c0000900780043ff07000000e00004003a0031
:1017d0000b00e000020032000a064600cfff37008f
:1017e000008020001900600002003200090078002b
:1017f00038ff070000c0200019006000020032001e
:1018000049009000e00498008b055700050009008e
:101810008885d800010037000000eb004f077800f2
:101820004f06be004f05be004f04be00000006007c
:1018300003003700b0cf1000050032000201e900bc
:10184000800178000200e000faff3a000000050085
:1018500003007800000006008001780002003700d5
:10186000b15978000201e9000200e000fcff3a00f3
:1018700000000600020037000304e000060032000a
:101880000001780002007800b041780081cf51005b
:10189000f9ff3a00010037000001eb000200780078
:1018a0000000060080007800010178003104e000ab
:1018b000fdff3a0000005100000006000001eb00af
:1018c00000027800b041780081cf510001003a0059
:1018d000040178000304e000f9ff3a0002007800f8
:1018e00000000600889fbe008a1f78000004780070
:1018f000c8009000680190000000eb00828f50004b
:101900003c00390018007800220029000201600024
:10191000e20f510007003200012020000000e0002b
:101920000100350001202400008c70000080eb00d5
:10193000300037000200260002006000820f5000d5
:1019400009003a0038009000808f500006003900ee
:1019500008007800dffe0700800078000080eb00c0
:101960000100e00023003a001805780000c02000c4
:101970000000650018003a00a804900060022000f2
:1019800008004000808f540013003a00002020001f
:1019900070030700200498000000e00005003a00f2
:1019a00029049800490498008904e8003904980043
:1019b000080037000a60a0000a0c78004004980074
:1019c000012020008080400031049800400c9800e5
:1019d000500c98008b0207002800900050049800db
:1019e000380090006004980000002600180c700079
:1019f0000000eb004f0578004f04be000000060019
:101a0000fc874700889fbe008a9fbe008c9fbe0057
:101a10008e1f78000006780080c5b30080cf50008c
:101a20000a0032007740400080cf50000a003200a8
:101a30006940400080cf50000b003200301521007b
:101a400080bf9f00ae0020000a0037002214210052
:101a500082bf9f00060037003315210083bf9f001f
:101a60008e002000030037003415210084bf9f0042
:101a70000e0120003c02be002c03be000605be0085
:101a80000404be0040c6b30080cf50000300320003
:101a90006540400080cf50000b003a00e00f52003c
:101aa000e08f5a00e00f5b00e08f5b0006003d0016
:101ab0006000b8006011b80004045000858458002c
:101ac0000605590087855900e80f570004003200c9
:101ad00040002000f00f57003a003a0001003700a4
:101ae00030002000e00f5400e08f5c00e00f5d004c
:101af000e08f5d0004003a008c1090008d01200002
:101b00000100e000070032008e00e90088806000dc
:101b10008fba97008180420091407800f1ef9f00da
:101b20007d012000800078008100e900050033007d
:101b30008b05d1000a85d3008984d3000884d300a3
:101b4000f9ff3700089ebe000a96be00130037005a
:101b50008d06e9008e00e900848060000fb99700cf
:101b6000810041001141780083fd2f008d814100eb
:101b700082f77900800178008301e90005003300d5
:101b80008783d1000683d3008582d3000482d300eb
:101b9000f9ff3700049ebe000696be003c02be0060
:101ba0002c03be00e00f5200e08f5a00e00f5b00f4
:101bb000e08f5b00910034000d00e000e4ff3c008a
:101bc0008e0037000c68900081c6b300814f500032
:101bd0000b00320006003c000004e0000800320068
:101be000e6c05000814f500052003a000400370018
:101bf000c1c6b300814f50004e003a0023003700a9
:101c00000800e00004003a000c1090008d01200054
:101c10000000e00007003200050009000e84d80033
:101c20000fba97000100420010407800f0ef9f00cb
:101c30007d012000050009000e84d8000b0037004c
:101c4000050009000e04d8008d06e9008e81b90058
:101c5000020454008fb8970008844000984178002f
:101c600082fd2f000d014100837779000004780088
:101c70000800e000020032000d00e000f0ff3c0030
:101c8000cfc4de00614db90027003700e00f5400db
:101c9000e08f5c0004003a000c1090008d012000e1
:101ca0000000e000080032006171b9000800be00c9
:101cb000330307000fba970080004200914078007c
:101cc000f1ef9f007d0120006171b9000800be00a6
:101cd00081fb07000c0037006171b9000800be00ed
:101ce000180307008d06e90080f1b90002045400d2
:101cf0008fba9700088442009841780082fd2f0037
:101d00000d014100837779000004be00e00f500010
:101d1000e08f5800020032000d00e000eeff3c00b2
:101d20004fcdde008a057800089ebe000a96be00f0
:101d300032003700e00f5400e08f5c00e00f5d00e0
:101d4000e08f5d0004003a000c1090008d0120002f
:101d50000000e0000a0032006172b900612bb90096
:101d60000800be000a01be00ae0307000fba9700cc
:101d70008000420091407800f1ef9f007d0120003b
:101d80006172b900612bb9000800be000a01be00f3
:101d90009d0307000e0037006172b900612bb90086
:101da0000800be000a01be00a20307008d06e9007c
:101db00080f2b900040454008fba970008844200ee
:101dc0009842780084fd2f000d02420085777a004a
:101dd000009ebe000296be003c04be002c05be0064
:101de000e00f5400e08f5c00e00f5d00e08f5d00cd
:101df000020034000d00e000e7ff3c00e80f570050
:101e000010003a003c1090000038a3000d00320092
:101e1000f78f560006003e0080fd2f000d004000a9
:101e2000ef40780000c3b30080cf500005003200bf
:101e300002c3b30071fd2f008d8040008d06e900c4
:101e400082f7780078811600420e98007c0090009e
:101e500083fd2f008f8141008d8041007efe0700b1
:101e60004c0890008c109000810f500006003d003f
:101e700000805000300e98003c1090000040a100ff
:101e8000301698000f0037000100e0000d003d0003
:101e9000bc109000f4806000f08f500009003a0000
:101ea0002c119000ac089000810051003c0990007a
:101eb00082805000008050004240a90001003400a0
:101ec000300e98004f0778004f06be004f05be0049
:101ed0004f04be00cf01b100000006000400fa006c
:101ee000889fbe008a9fbe008c1f78000004780087
:101ef00001067800a81490002808900080845400ff
:101f00003808900080845400480890008084540071
:101f10005808900080845400680890008084540021
:101f200078089000808454000002220090bf9f0037
:101f300000032300a0bf9f00381090000028a300da
:101f400015003a000900e00013003400090578008c
:101f50008a057800e20f5500010036002b002000b2
:101f6000c80190000b017800ee80570068009000d7
:101f700003000100600498000000e000aa003200a5
:101f8000181090000b004000101498000b0555002d
:101f90004240a900eeff3c00280990000200e0004a
:101fa0000c003400c80190008c007800680090009c
:101fb00003000100600498008080eb000000e00056
:101fc0009a0032009810900028089000008040008d
:101fd00010149800380d90000a00e0001100340041
:101fe0008a057800e20f5500010036002b00200022
:101ff000c80190000b017800ec8057006800900049
:1020000003000100600498000000e0008600320038
:10201000181090000b004000101498000b0555009c
:10202000edff370008699000c808900050c6b30063
:10203000804f510008003a000100e0001500340014
:1020400058029000080990009809900068009000dc
:1020500004000100070037000100e0000d0034001b
:10206000c801900001017800f8009000680090001d
:1020700003000100600498008080eb000000e00095
:102080006a003200981090004808900000804000dc
:1020900010149800580d90000a00e0001100340060
:1020a0008a057800e20f5500010036002b00200061
:1020b000c80190000b017800ec8057006800900088
:1020c00003000100600498000000e00056003200a8
:1020d000181090000b004000101498000b055500dc
:1020e000edff3700086990006808900051c6b30002
:1020f000814f51000d003a000000e0001c00340048
:1021000078019000c8089000010141006111b800f9
:10211000828fd2008381d200580290008000780024
:102120006800900004000100090037000000e00092
:102130000f00340078019000c80890008100410031
:10214000c8019000000178006800900003000100c1
:10215000600498008080eb000000e0003300320053
:1021600098109000680890000080400010149800bb
:10217000780d90000a00e000110034008a05780014
:10218000e20f5500010036002b002000c80190002e
:102190000b017800ec8057006800900003000100fc
:1021a000600498000000e0001f003200181090004a
:1021b0000b004000101498000b055500edff370090
:1021c000381090008000eb000028a30017003200b8
:1021d0000900e0001500340009057800e28f540082
:1021e000010036002a002000c80190000a01780092
:1021f000ee80570068009000030001006004980022
:102200000000e00008003200181090000a004000b2
:10221000101498008a8454004240a900eeff3c004c
:102220008000eb00010037008080eb0001007800a7
:102230004f0678004f05be004f04be000080fa0034
:10224000000006000108780000000600e68747004d
:10225000889fbe008a9fbe008c9fbe008e1f7800a4
:1022600082bf9f00040478008299b900f2b79f00f2
:102270000200e000590032000fb997000200e000b0
:10228000570032000006be007fb79700c8009000dc
:1022900068009000808f500004003900080078002a
:1022a00090fd07000000e0003b00350000402000ea
:1022b000180060000a0032008e017800a2002000a1
:1022c0000c00be00840107000005be000080750000
:1022d000070032008c0455008904e800050037002f
:1022e0008e0478000a0020000b0020000100370057
:1022f0008e047800480190006800900002005000b1
:10230000890f500003003100800478000a0020008b
:102310000b0020006111b800828fd2008381d200af
:10232000090278000c00be004201070009075700af
:102330004800900009004000400498000a8575009c
:10234000040032000800780062fc07000000e00092
:1023500011003a000e00e0000f0032006148b800a2
:10236000808fd2008180d2000000780000f0a100b0
:102370000c01d0008001d000030641004220a800db
:1023800081864e004200a9004220ae004200a80013
:102390000c86d300bdff37000080200018006000cd
:1023a00002003200080078004afc070000c020004c
:1023b000180060000200320048009000600498009d
:1023c0007fb197000e0751000fb997000500090073
:1023d0000287d80080017800010037008001eb00ff
:1023e000030078004f0778004f06be004f05be007f
:1023f0004f04be006f00b10000000600402a21001b
:1024000062003700881f7800c81921001804e00016
:1024100003003a00f9ff070020c0b300004c780029
:102420004f04780000000600889fbe00000478007a
:102430000800780027fc07008004780000042000d2
:102440001800600002003200280090005c000700c5
:102450000000eb0020049800384090000004e000e9
:10246000050035000000fb0058f907000000e000ff
:10247000010032008084eb00181090000000e000a2
:10248000080032005af907000000e00001003200a5
:102490008084eb0018109000490007000000eb005a
:1024a0001014980000082000180060001500320089
:1024b0000001eb006000b8000202d000430a2100d6
:1024c00003024200940f140005003a00000040008f
:1024d00081804800008041000008eb0006003700c2
:1024e00061004000e08048000201e800e80f500071
:1024f000e08f5800f0ff3a00080078003000070035
:102500000e003700000c780000c0eb00304498004b
:102510006002200008004000200498004004980059
:1025200050049800400c980060049800500c9800eb
:102530007004980076004400000c980009007800b0
:102540004f04be0000000600881f78000004eb0066
:102550006140b800e2ff2f00f3ff2f000b010700de
:10256000220b210080004100110078000000e000f3
:1025700001003200acff07000804e800e80f540037
:10258000f3ff3a004f04780000000600010020002d
:102590000100e00009003200010080000100e000bd
:1025a000060032008100e900010088008100d000af
:1025b0000200800082804000800878000000060051
:1025c0000000e0002f003200c0017800e38f5100ce
:1025d0002c0036000308a3002a003a00d18c8000aa
:1025e0000100e00002003200810f500004003100c1
:1025f00011009800d08c8800160037008200780007
:10260000110190000200e00002003200800f510032
:10261000faff39001102780084824000850f5000d3
:1026200018003900808f520003003a0083084200ee
:1026300001007800070037000200e00003003200cc
:1026400083014000830f51000e00390012009800f2
:1026500090009800900090000100e0000900320016
:1026600010014000828f500006003a0082192100bc
:102670000009eb0010017800110841009100900062
:102680001100980000000600889fbe00000478003a
:10269000c18c80000100e0000200320001007800df
:1026a0000d003700d18c8000a019210004003700f4
:1026b000910f5400250036000180e8009100900041
:1026c0000100e000faff3a0010003700920f5400ba
:1026d0001e0036000280e800100178000200e000d1
:1026e000faff3a0011017800d18c8000a019210076
:1026f00004003700910f5400140036000180e800f8
:1027000091009000828f5000faff3a00f98c80000f
:10271000888f540001003100880478000900780097
:10272000360007000000e00004003a00888f5400e3
:10273000050032008904d100f5ff37000918780040
:102740009fff0700d2ff37000000eb004f04be00e0
:1027500000000600881f7800630440000800a10004
:102760008000eb00800f540021003600e30f54007e
:1027700001003e004800200008007800c2ff07006a
:102780008000eb000000e0001900320090007800ab
:102790009101780064815100880f510003003100dd
:1027a00011019000020878000700370008814000fe
:1027b0000208780091019000130198001001780040
:1027c0001109140088087800100178000000eb005f
:1027d0000200e00004003200920190000300e000db
:1027e000010032000280e800c08c88008180e8008f
:1027f000010078004f047800000006008000780097
:102800000000eb000100e00005003400010078004a
:1028100080f80700e10f400001003a000000eb00e3
:102820000000060000c0da000000060000c0da0068
:10283000000006003400f8003200f8000203be0079
:10284000820270008502720002f0a6008301e80097
:10285000a301880000f0a6008100e8009101880033
:102860001500b2000c003200104978000402e900a3
:102870001500320061014100020039003420ec00f3
:102880000200280061004000f7ff39003220ec0010
:1028900000002800f4ff3700100978000482e900e6
:1028a0000900320062014100020039003420ec00ce
:1028b0000200280062004000f7ff39003220ec00df
:1028c00000002800f4ff37003200f9003400f9005e
:1028d0000601be00000006000300e0000700320011
:1028e0009501800001d0fe001042780005d0fe0066
:1028f0000402fb00820f5200110032008301e90044
:102900009501800001d0fe001042780005d0fe0045
:102910000404e00008003200000278001000b0005b
:1029200000026a004260af0000f0a0000482d20002
:102930000180b000e8ff3700000020000100200007
:1029400000000600839f68000100e00002003d00d7
:1029500060001000e08018000300e00002003d006d
:1029600060011100e08119005bf807004f00e000f2
:1029700002003b0060001000e0801800000006002c
:1029800055f807000400be0000000600020ab90066
:10299000001bb9000200b800810042008100430022
:1029a00000000600889fbe008a9fbe0030044200df
:1029b000b0844a0030054b0090854b006000b100a8
:1029c0000898be000a90be000440e10005c8e1007e
:1029d00006d0e10007d8e1000200310068004000a5
:1029e0001008e8004f05be004f04be0000000600be
:1029f000889fbe008a9fbe003004be002005be0036
:102a00000418540005985c0006185d0007985d00e6
:102a1000110020000440e10005c8e10006d0e100fb
:102a200007d8e100010039008000eb001088100099
:102a30004f05be004f04be00000006001200fa0061
:102a4000889fbe008a9fbe008c9fbe00e0b79f009b
:102a5000f1b79f0082bf9f0093bf9f000605be0095
:102a60000404be000000eb00d0b79f00c0b79f0079
:102a7000b0b79f00a0b79f0090b79f0000067800f6
:102a80005fb19700cfb09700820141003fb097003f
:102a90000200e00004003d00370007007e80570080
:102aa000c0ff070003003700330007007e80570097
:102ab000cfff0700dfb697000d00e0000c003500e7
:102ac0006fb29700ffb297000fbb97009fbb9700b4
:102ad00010002000010020006011b8000002720008
:102ae0008182720002037300838373001b0007005e
:102af0000c06e80001042000810f5600e0ff3a00b8
:102b00000d00e00004003d000802be000a03be0004
:102b10007e805700a3ff07005fa897000000e00039
:102b200005003a001fb29700afb297003fb397007d
:102b3000cfb39700090007006fb09700ffb0970070
:102b40000fb997009fb997004f06be004f05be0012
:102b50004f04be000080fa000000060001000700dc
:102b600000000600a4b79f00b5b79f00c6b79f003e
:102b7000d7b79f00000006004f09de008281710078
:102b8000b3b79f004f01de0081804000828070005b
:102b9000a1b79f008fb097004f09de0000004000f2
:102ba0000200700090b79f007fa897004f01de00e1
:102bb000818040008280700081b79f000d00070077
:102bc0004f3ade000000400004007000f0af9f00ac
:102bd000080007000402420085824a0006034b00f9
:102be00087834b00dfff07000802be000a03be0018
:102bf000000006002fb29700bfb297004fb39700b6
:102c0000dfb3970000000600881f7800180020003e
:102c1000881f780089ff07008f87e9004f0478003c
:102c200000000600801feb0084ff07008f87e9008b
:102c300000000600889fbe008a9fbe00e00f500083
:102c4000e08f5800e00f5900e08f59000c003d0064
:102c50006044b8006055b8000000540081805c00fa
:102c600002015d0083815d0018002000150007004f
:102c700008003d00180007000004eb0005003700c5
:102c80000004eb000f00070002003d0012000700e7
:102c900018002000dcff07000800e00006003200fa
:102ca0006022b8006033b8000000520081805a00f2
:102cb00002015b0083815b004f05be004f04be0034
:102cc00000000600e00f5200e08f5a00e00f5b00aa
:102cd000e08f5b00000006006044b8006055b8005b
:102ce0000402540085825c0006035d0087835d005a
:102cf00000000600889fbe008a9fbe008c1f7800df
:102d0000e00f5000e08f5800e00f5900e08f5900ad
:102d10000d003d006044b8006055b800000054004c
:102d200081805c0002015d0083815d001c00200049
:102d30000820e10009a8e1000ab0e1000bb8e100b9
:102d40000d003d00080037000006eb00e00f5200c8
:102d5000e08f5a00e00f5b00e08f5b0006003d0053
:102d60006044b8006055b8000402540085825c00dd
:102d700006035d0087835d00aaff07000c00e000ea
:102d8000060032006022b8006033b8000000520034
:102d900081805a0002015b0083815b004f0678004e
:0c2da0004f05be004f04be0000000600fe
:020000040000fa
:102dac001b5b0000324a0000001b00005b3000007f
:102dbc003b300000660000001b5b00003f3200004f
:102dcc00356c0000002d00002d2d00002d2d000075
:102ddc002d2d00002d2d00002d2d00002d2d00007f
:102dec002d2d00002d2d00002d2d00002d2d00006f
:102dfc002d2d00002d2d00002d2d00002d2d00005f
:102e0c002d2d00002d2d00002d2d00002d2d00004e
:102e1c002d2d00002d2d00002d2d00002d2d00003e
:102e2c002d2d00002d2d00002d2d00002d2d00002e
:102e3c002d2d00002d2d00002d2d00002d2d00001e
:102e4c002d2d00002d2d00002d0d00000064000024
:102e5c00735000004943000033330000434b000023
:102e6c002043000075720000696f00007369000058
:102e7c00747900002044000065760000656c000049
:102e8c006f7000006d6500006e7400002042000041
:102e9c006f6100007264000020440000656d00004a
:102eac006f200000202000002020000020200000c7
:102ebc002020000020200000202000002020000006
:102ecc0020200000202000002020000020200000f6
:102edc00200d000000530000312000002d200000c8
:102eec00636f00006e740000726f00006c73000062
:102efc00204c000045440000310d00000053000040
:102f0c00322000002d200000636f00006e74000062
:102f1c00726f00006c730000204c000045440000f0
:102f2c00320d000000530000332000002d20000063
:102f3c006d6100006b6500007320000052470000bb
:102f4c00422000004c450000442000007475000035
:102f5c00726e000020770000686900007465000044
:102f6c000d0000000d0000001b5b0000383b000052
:102f7c0030660000005000006f740000656e0000a9
:102f8c00746900006f6d00006574000065720000cc
:102f9c003a200000256900002f3400003039000071
:102fac003520000020200000200d00000a00000049
:102fbc0042750000747400006f6e00002053000016
:102fcc00313a000020250000730d00000a000000bb
:102fdc0042750000747400006f6e000020530000f6
:102fec00323a000020250000730d00000a0000009a
:102ffc0042750000747400006f6e000020530000d6
:10300c00333a000020250000730d00000a00000078
:10301c004163000074690000766500006c79000063
:10302c00206300006f6e0000747200006f6c000073
:10303c006c65000064200000636f00006c6f000082
:10304c00723a0000202500007320000020200000b0
:10305c002020000020200000202000000d0a00008d
:10306c000020000020520000656400003a2000009f
:10307c0020200000256900002020000020200000f6
:10308c0020200000202000000d0a0000002000007d
:10309c002047000072650000656e00003a200000b9
:1030ac0025690000202000002020000020200000c6
:1030bc00202000000d0a000000200000204200002b
:1030cc006c750000653a00002020000025690000a6
:1030dc0020200000202000002020000020200000e4
:0830ec000d0a000000000000c5
:020000040000fa
:1030f4000000fa0000082000c01188003a22ef0006
:103104003c22ef0020022000f011880090012000f2
:10311400001288004222ef004c22ef004e22ef0002
:103124005022ef005222ef005422ef005622ef000b
:103134005822ef005a22ef005c22ef002168a80019
:103144004a010700e0162100508b8800e016210098
:10315400408b880060172100308b880060172100a5
:10316400208b8800608b80000010a000608b88009a
:10317400608b80000090a000608b8800608b8000d2
:103184000080a100608b8800608b80000000a1009b
:10319400608b88000080fa00000006000200fa003c
:1031a4000040eb00004f7800308b8000104f780017
:1031b400308b80000000e800308b8800318b800069
:1031c400e0172100808f500002003a0060172100b0
:1031d400308b8800318b8000208b8000808f5000e2
:1031e40003003a00608b80000010a000608b880010
:1031f400608b80000000a100608b88001e40780076
:103204000080fa00000006000600fa00881f78001b
:1032140010079800210798000000eb00000f7800c9
:1032240009003700608b8000620060000000e0004d
:103234000a003a001e0090001e044000d7ff070059
:10324400004c78001e0fe8002e0090009e007800cd
:10325400808f5000f3ff39000100370000000000a8
:103264001e0078004f0478000080fa000000060079
:103274000200fa00004f78002188a900408b8000ea
:103284001e487800408b80000000e800408b8800d6
:10329400418b800060172100808f500002003a00ab
:1032a400e0162100408b8800608b80000090a10014
:1032b400608b8800518b8000408b8000808f500091
:1032c40003003a00608b80000080a000608b8800bf
:1032d4002188a8000080fa00000006000600fa0019
:1032e40010079800210798000000eb00000f7800f9
:1032f4000a003700618b800000102000008060000d
:103304000000e0000a003a001e0090001e00400089
:10331400104078001e0fe800d5ff07002e00900033
:103324009e007800808f5000f2ff390001003700c2
:10333400000000001e0078000080fa000000060073
:103344000200fa000000eb00000f7800618b80009f
:1033540000202000008060000000e0000100320036
:103364001e40a000618b80000010200000806000df
:103374000000e000010032001e30a000608b8000dd
:10338400610060000000e000010032001e00a000a7
:10339400608b8000620060000000e00002003200e8
:1033a4001e20a000010037001e10a0001e0078009f
:1033b4000080fa00000006000200fa00000f780006
:1033c400308b80009e004000e0172100808f500069
:1033d40009003900308b80009e004000e017210076
:1033e4000000ea00008040006117210000804000d6
:1033f4001040780003003700308b80001e0040002e
:10340400104078000080fa00000006000800fa006e
:1034140020079800310798000000eb00100798007f
:1034240010c0b300004f78003e009000e70f50003a
:1034340007003e00608b8000620060000000e00036
:1034440003003a002e0090000000e00003003a0060
:103454000040eb00004f780030003700308b8000d4
:10346400800078003e0090008080400060172100ba
:103474000000ea0000804000670060001007980028
:10348400318b8000208b8000808f50000a00310037
:10349400318b80003e00900080804000208b8000b3
:1034a4000000e900808f5000150036000040eb005a
:1034b400004f780012003700318b8000208b800091
:1034c400808f50000e0036009e009000601721008f
:1034d40080804000308b8000808f500008003100d5
:1034e4009e0090006017210080804000208b8000a7
:1034f400808f5000020039000040eb00004f78003c
:103504001e4078000004e000040032003e009000f9
:10351400a9ff0700ae009000804878001e407800a4
:103524000080fa00000006000000fa00608b8000b2
:10353400610060000000e0000f003a00318b800061
:10354400208b8000808f500005003600308b800077
:1035540080007800208b8000008050000700370036
:10356400308b800080007800208b80000080500029
:1035740068004000010037000000eb000080fa0002
:10358400000006000000fa00618b8000001020009b
:10359400008060000000e0000f003a00518b8000c2
:1035a400408b8000808f500005003600508b8000d7
:1035b40080007800408b80000080500007003700b6
:1035c400508b800080007800408b80000080500089
:1035d40068004000010037000000eb000080fa00a2
:1035e400000006000000fa00608b800062006000aa
:1035f40000f0a7000000ea000000ea004f00de002f
:10360400004078000080fa00000006000000fa0084
:10361400618b8000001020000080600000f0a70093
:103624000000ea000000ea004f00de0000407800dd
:103634000080fa00000006000400fa00f011800087
:103644008000eb00008fbe001e00be00c001dd0044
:1036540002002000e01180008000eb0000007100f7
:10366400818071000080fa00000006000000fa006a
:1036740039e2a80038a2a8003882a8000080fa0025
:10368400000006000000fa0039e2a90038a2a900ef
:103694003882a9000080fa00000006000000fa0049
:1036a40072cea90076cea8000080fa0000000600c1
:1036b4000000fa0072cea90076cea9000080fa00bc
:1036c400000006000000fa0072aea90076aea80061
:1036d4000080fa00000006000000fa0072aea900a3
:1036e40076aea9000080fa00000006000000fa008f
:1036f40072eea800a1738000000820000080600022
:1037040000f0a7000000ea000000e9004f00de001e
:10371400004078000080fa00000006000000fa0073
:10372400730ea800a17380000010200000806000c8
:1037340000f0a7000000ea000000e9004f00de00ee
:10374400004078000080fa00000006000000fa0043
:10375400732ea800a1738000002020000080600068
:1037640000f0a7000000ea000000e9004f00de00be
:10377400004078000080fa00000006000000fa0013
:10378400ba0307001e30ef000000eb006a020700d6
:10379400700120005d0207000000eb005b030700de
:1037a4001200200003002000c0f2210023030700c0
:1037b400120020000300200060c521001f03070041
:1037c4006800070070012000fa010700c08088002b
:1037d400f0808000e10f500008003200e10f50003b
:1037e40003003900e20f50000700320009003700df
:1037f400c08080002081880006003700c0808000df
:103804003081880003003700c08080004081880038
:1038140000000000cdff07001cf0b7001cd0bf0063
:103824000004e00005003200020028000100280026
:10383400000028004a01070004003700428180008c
:10384400318180002081800045010700620007006b
:10385400dcff37000000fa00f0808000e10f500028
:1038640008003200e10f500003003900e20f50005d
:10387400070032000800370010002000f0808800a4
:103884000700370020002000f08088000400370083
:103894001e30ef00020037001e30ef000000000071
:1038a4000080fa00000006000000fa008fff070005
:1038b4000004e0000a00320078ff07000081800065
:1038c4000000e00003003a00e2ff070010c0b3006c
:1038d4001af0b70040012000008188000900370079
:1038e40073ff0700008180000000e0000400320044
:1038f400008180000000e900008188000100370099
:103904001a70ef0085ff07000004e0000a0032008f
:103914006cff0700108180000000e00003003a0003
:10392400ccff070010c0b3001bf0b700400120001b
:10393400108188000900370067ff070010818000ac
:103944000000e00004003200108180000000e90063
:1039540010818800010037001b70ef000080fa001e
:10396400000006000000fa00606d2900801f780046
:10397400aff407008f87e900b06d2900801f78003d
:10398400abf407008f87e900206e2900801f7800c0
:10399400a7f407008f87e900906e290064f40700fc
:1039a400d072290062f40700906e290060f40700c9
:1039b400107729005ef40700507829005cf40700b2
:1039c400907929005af40700807b290058f40700f5
:1039d4000080fa00000006000000fa00a07b290025
:1039e400801f780092f407008f87e900c080800070
:1039f4004400de00801f7800107c2900801f7800be
:103a04008bf40700e4875700811121001ad0bf000e
:103a14000080fb00ec00b90000804000801f7800ab
:103a2400e07d2900801f780081f40700e4875700b7
:103a3400811121001bd0bf000080fb00ec00b90005
:103a440000804000801f7800e07e2900801f7800fd
:103a540077f40700e4875700811121001cd0bf00d0
:103a64000080fb00ec00b90000804000801f78005b
:103a7400e07f2900801f78006df40700e487570079
:103a840001132100f0808000e600b90000804000ae
:103a9400801f7800e0802900801f780064f407000c
:103aa400e4875700208180004400de00801f7800f6
:103ab40070832900801f78005df40700e4875700b5
:103ac400308180004400de00801f7800d08429000b
:103ad400801f780056f40700e48757004081800077
:103ae4004400de00801f780030862900801f7800a3
:103af4004ff40700e48757000080fa000000060036
:103b04000200fa00000f78001e007800c800de00f2
:103b140000002100010878000080fa00000006007f
:103b24000000fa0000002200f5ff07000080fa0000
:103b3400000006000000fa000000eb00f0ff0700a0
:103b44000080fa00000006000000fa0000002100d6
:103b5400100078000000e00003003a00000022009a
:103b6400e7ff0700020037000000eb00e4ff070056
:103b74000080fa00000006000200fa00000f78003e
:103b840073eea9001e0078000040780061406000d8
:103b94000080fb004f00dd00b173800001f0a10044
:103ba40001007000b07388000080fa000000060075
:103bb4000200fa00000f78001e007800c800de0042
:103bc40080002100010878000080fa00000006004f
:103bd4000000fa0000002200f5ff07000080fa0050
:103be400000006000000fa000000eb00f0ff0700f0
:103bf4000080fa00000006000000fa0080002100a6
:103c0400100078000000e00003003a0000002200e9
:103c1400e7ff0700020037000000eb00e4ff0700a5
:103c24000080fa00000006000200fa00000f78008d
:103c340073cea9001e007800004078006140600047
:103c44000080fb00610060004e00dd00b173800065
:103c540001e0a10001007000b07388000080fa0048
:103c6400000006000200fa00000f78001e00780031
:103c7400c800de0000012100010878000080fa007d
:103c8400000006000000fa0000002200f5ff070013
:103c94000080fa00000006000000fa000000eb00bb
:103ca400f0ff07000080fa00000006000000fa00a0
:103cb40000012100100078000000e00003003a0039
:103cc40000002200e7ff0700020037000000eb00bd
:103cd400e4ff07000080fa00000006000200fa007a
:103ce400000f780073aea9001e0078000040780031
:103cf400614060000080fb00610060004d00dd0059
:103d0400b173800001d0a10001007000b07388007d
:103d14000080fa00000006000000fa0080ff07009f
:103d2400d8ff0700aaff07000080fa000000060081
:103d34000000fa007fff0700d7ff0700a9ff070074
:103d44000080fa00000006000000fa007eff070071
:103d5400d6ff0700a8ff07000080fa000000060055
:103d64000600fa00000f7800110798002207980057
:103d74001e00780062ff07001e0090008cff070001
:103d84002e009000b7ff07000080fa000000060034
:103d94000400fa00100798001e009000100f78002d
:103da4001e007800f10f500008003e001e0078004d
:103db400e90f50000300360020012000000f7800b6
:103dc400020037000000eb00000f78001e00900096
:103dd400100090009e0040001e009000110098000a
:103de4001e00900090009000c0112000808f5000b1
:103df40004003e001e0090008000eb0021009800ab
:103e0400090037001e0090001100200021009800d6
:103e14001e0090001000900031ee2f0080804000c2
:103e24001e009000110098000080fa0000000600b7
:103e34000200fa00000f78001e007800b000900025
:103e44001e00780020009000010001000080fa00ac
:103e5400000006000000fa0000002100f4ff070043
:103e640000012100f2ff070080002100f0ff07009d
:103e740000002100c6ff070000012100c4ff070065
:103e840080002100c2ff07000080fa000000060045
:103e94000400fa00100798001e009000f70f50006d
:103ea4000b003a001e00900010000700d1cc2c003b
:103eb4000100b8004308de00004f780040c6b3009c
:103ec4009e40780080cf500003003e00040037007d
:103ed40000c0eb000300370040c6b300004f780079
:103ee4001e4078000080fa00000006000200fa007c
:103ef400000f78001e007800030007004200de0077
:103f04000080fa00000006000600fa00200798006e
:103f14002e0090000000400080007800c0c0200007
:103f2400008f40004158800000e02f008080600036
:103f34002e0090000100700040588800090ba80072
:103f44002e009000ef0f50000b003e002e0090005a
:103f5400110020000008dd00100798000000000098
:103f6400815980001e009000008060000000e00085
:103f7400fbff32000b0037002e0090007000500051
:103f8400110020000008dd00100798000000000068
:103f9400915980001e009000008060000000e00045
:103fa400fbff32001e007800100078000080fa0049
:103fb400000006000800fa00300798003e00900058
:103fc4000000400080007800c0c02000008f400046
:103fd4004158800000e02f00808060003e00900087
:103fe4000100700040588800090ba8003e009000b2
:103ff400ef0f50000b003e003e0090001100200027
:104004000008dd00100798000000000081598000be
:104014001e009000008060000000e000fbff320002
:104024000b0037003e00900070005000110020008b
:104034000008dd001007980000000000915980007e
:104044001e009000008060000000e000fbff3200d2
:104054001e00780090007800210798002e00900040
:104064004400dd00200798002e0090000080fa0034
:10407400000006000a00fa00300798004107980083
:104084006000b800008fbe000000eb00200798001d
:10409400080037003e0090009bff07008000eb0003
:1040a4001e0f40005e9748002e0090000000e800bc
:1040b40020079800ae0090004e009000808f5000c2
:1040c400f4ff39002e0090000000e0000c003200e4
:1040d4002e0090000000d1008000eb003e02400062
:1040e400ae8248002e0090008000eb000001be006c
:1040f4000400be0077f207000000780001003700da
:104104000000eb000080fa00000006000200fa0044
:10411400000f78001e007800f70f500003003a00eb
:10412400706ea80010c0b300010037000040eb001f
:104134000080fa00000006000200fa00000f780078
:104144001e0078000000e00017003a00002bef008a
:1041540000062000105888003000200020588800f5
:104164000003200030588800082bef0000082000ce
:1041740050588800000820000060880000f02000eb
:104184001060880001eba8000000000001608000be
:1041940000002800008060000000e000fbff320007
:1041a40010c0b300010037000040eb000080fa00ab
:0441b4000000060001
:020000040000fa
:1041b800181100002a000000820000004e6f7400f1
:1041c80020507200657373006564000050726500ca
:1041d800737365006420200020200000526564008d
:1041e8002020000047726500656e0000426c750073
:1041f80065200000181000000c000000800000007e
:1042080024100000060000008200000000400000aa
:104218008000b000001000001800000082000000bc
:104228000000000000000000be1d000000000000ab
:10423800000016001e0000000000000000701e00b4
:10424800641100001a00000080000000b410000093
:1042580064000000800000002a1000000200000036
:10426800800000002c100000880000008200000080
:1042780001000000005210005310520010521000ac
:104288005210520010421000000000000000000010
:104298000000000000000000000000000000000016
:1042a800000000000002080001017a00107b1000e5
:1042b8007a107a00107a10007a106a001000000054
:1042c80000000000000000000000000000000000e6
:1042d80000000000000000000000020008020200c8
:1042e800a210a30010a21000a210a20010a2100099
:1042f8009210000000000000000000000000000014
:1043080000000000000000000000000000000000a5
:104318002c105400107c1000000000000000000069
:1043280000000000000000007e1100001a000000dc
:1043380082000000686a6c00747a4c00000001007a
:104348000002000004000800001000000000200027
:104358002b2d230030000000421100002200000035
:1043680082000000303132003334350036373800ef
:1043780039414200434445004600300031323300a1
:104388003435360037383900616263006465660089
:10439800000000009c1100000200000080000000e6
:1043a8009e110000020000008200000004000000ce
:1043b800981100000400000080000000a011000017
:0c43c80002000000800000000000000067
:020000040000fa
:1043d4000400fa00100798000040eb00004f78003a
:1043e400110037001e80fb00ea00b900800078004d
:1043f400400b210000804000900078001e009000d7
:10440400808f500007003a001e80fb00ea00b900cc
:1044140080007800400b2100008040008000eb0009
:10442400010878001e4fe8001e407800e94f500054
:10443400ecff36000080fa00000006000800fa00d5
:104444001007980022079800330798002ad0bf006d
:104454000004a2000004e000020032000040eb006f
:10446400280037000040eb00004f7800210037009f
:104474001e80fb00ea00b90080007800400b210098
:1044840000804000100078000000e00018003a00ae
:104494001e80fb00ea00b90080007800400b210078
:1044a400008040009e009000010878001e80fb0000
:1044b400ea00b90080007800600b21000080400011
:1044c4002e019000be0190000288be001e80fb00f9
:1044d400ea00b90080007800a00b210000814000b0
:1044e4006000b8000089be0010c0b30005003700aa
:1044f4001e4fe8001e407800e94f5000dcff3600f4
:104504000040eb000080fa00000006000200fa0000
:10451400000f78001e0078000000e0000300320065
:10452400e10f5000200032002300370001e1a90010
:104534002028a900420620008000eb00400b210047
:1045440074f107000028a900014280000007200040
:1045540001007000004288000421ef00703e20003a
:10456400400888000108800000302000010070002d
:10457400000888000021a8000041a900010880006b
:10458400f0fc2f00008060000040a00000088800bc
:1045940001e1a8002028a80010c0b3002af0b70049
:1045a40010c0b300050037002028a9002a70ef00ce
:1045b40010c0b300010037000040eb000080fa0097
:1045c400000006000000fa0010002300307c880080
:1045d40060092000407c88008c2fef00100420002c
:1045e400507c880010102000707c88006009200036
:1045f400807c880010042000907c88009a2fef00b3
:10460400b82fef00ba2fef00002def00a02fef001e
:10461400a42fef00a62fef00a82fef00aa2fef0082
:10462400ae2fef00b02fef00b22fef0022002000da
:1046340080072000a109200053f820008049780059
:1046440081497800824978000001eb006004200071
:104654007105200043f820008049780081497800e2
:10466400824978000080fa00000006000000fa0089
:10467400216d800000fc2f00008060000000a0007d
:10468400206d88009afa07000080fa0000000600f6
:020000040000fa
:020000040005f5
:047e0000ffffff0081
:020000040000fa
:020000040005f5
:047e2000ffffff0061
:020000040000fa
:020000040005f5
:047e30007affff00d6
:020000040000fa
:020000040005f5
:047e3800b9ffff008f
:020000040000fa
:020000040005f5
:047e40007f7fff0041
:020000040000fa
:020000040005f5
:047e4800ffffff0039
:020000040000fa
:020000040005f5
:047e5000ddffff0053
:020000040000fa
:020000040005f5
:047e58000000ff0027
:020000040000fa
:020000040005f5
:047e60000000ff001f
:020000040000fa
:020000040005f5
:047e68000000ff0017
:020000040000fa
:020000040005f5
:047e70000000ff000f
:020000040000fa
:020000040005f5
:047e7800ffffff0009
:020000040000fa
:020000040005f5
:047e8000fffcff0004
:020000040000fa
:020000040005f5
:047e8800ffffff00f9
:020000040000fa
:020000040005f5
:047ff800ffffff0088
:020000040000fa
:020000040100f9
:04300000ffffff00cf
:00000001FF
