:020000040000fa
:080000000002040000000000f2
:020000040000fa
:040008001a030000d7
:020000040000fa
:04000c0030030000bd
:020000040000fa
:04001000de0400000a
:020000040000fa
:04001400460300009f
:020000040000fa
:040018005c03000085
:020000040000fa
:04001c00de040000fe
:020000040000fa
:04002000de040000fa
:020000040000fa
:04002400de040000f6
:020000040000fa
:04002800de040000f2
:020000040000fa
:04002c00400400008c
:020000040000fa
:04003000de040000ea
:020000040000fa
:04003400de040000e6
:020000040000fa
:04003800de040000e2
:020000040000fa
:04003c00de040000de
:020000040000fa
:04004000de040000da
:020000040000fa
:04004400de040000d6
:020000040000fa
:04004800de040000d2
:020000040000fa
:04004c00de040000ce
:020000040000fa
:04005000de040000ca
:020000040000fa
:04005400dc030000c9
:020000040000fa
:04005800720300002f
:020000040000fa
:04005c00de040000be
:020000040000fa
:04006000de040000ba
:020000040000fa
:04006400de040000b6
:020000040000fa
:04006800de040000b2
:020000040000fa
:04006c00de040000ae
:020000040000fa
:04007000de040000aa
:020000040000fa
:04007400de040000a6
:020000040000fa
:04007800de040000a2
:020000040000fa
:04007c00de0400009e
:020000040000fa
:04008000de0400009a
:020000040000fa
:04008400de04000096
:020000040000fa
:04008800de04000092
:020000040000fa
:04008c00de0400008e
:020000040000fa
:04009000de0400008a
:020000040000fa
:04009400de04000086
:020000040000fa
:04009800de04000082
:020000040000fa
:04009c00de0400007e
:020000040000fa
:0400a000de0400007a
:020000040000fa
:0400a400de04000076
:020000040000fa
:0400a800de04000072
:020000040000fa
:0400ac00de0400006e
:020000040000fa
:0400b000de0400006a
:020000040000fa
:0400b400de04000066
:020000040000fa
:0400b800de04000062
:020000040000fa
:0400bc00de0400005e
:020000040000fa
:0400c000de0400005a
:020000040000fa
:0400c400de04000056
:020000040000fa
:0400c800de04000052
:020000040000fa
:0400cc00de0400004e
:020000040000fa
:0400d000de0400004a
:020000040000fa
:0400d400de04000046
:020000040000fa
:0400d800de04000042
:020000040000fa
:0400dc00de0400003e
:020000040000fa
:0400e000de0400003a
:020000040000fa
:0400e400de04000036
:020000040000fa
:0400e800de04000032
:020000040000fa
:0400ec0022040000ea
:020000040000fa
:0400f000de0400002a
:020000040000fa
:0400f400de04000026
:020000040000fa
:0400f800de04000022
:020000040000fa
:0400fc00de0400001e
:020000040000fa
:04010000de04000019
:020000040000fa
:04010400de04000015
:020000040000fa
:04010800de04000011
:020000040000fa
:04010c00de0400000d
:020000040000fa
:04011000de04000009
:020000040000fa
:04011400de04000005
:020000040000fa
:04011800de04000001
:020000040000fa
:04011c00de040000fd
:020000040000fa
:04012000de040000f9
:020000040000fa
:04012400de040000f5
:020000040000fa
:04012800de040000f1
:020000040000fa
:04012c00de040000ed
:020000040000fa
:04013000de040000e9
:020000040000fa
:04013400de040000e5
:020000040000fa
:04013800de040000e1
:020000040000fa
:04013c00de040000dd
:020000040000fa
:04014000de040000d9
:020000040000fa
:04014400de040000d5
:020000040000fa
:04014800de040000d1
:020000040000fa
:04014c00de040000cd
:020000040000fa
:04015000de040000c9
:020000040000fa
:04015400de040000c5
:020000040000fa
:04015800de040000c1
:020000040000fa
:04015c00de040000bd
:020000040000fa
:04016000de040000b9
:020000040000fa
:04016400de040000b5
:020000040000fa
:04016800de040000b1
:020000040000fa
:04016c00de040000ad
:020000040000fa
:04017000de040000a9
:020000040000fa
:04017400de040000a5
:020000040000fa
:04017800de040000a1
:020000040000fa
:04017c00de0400009d
:020000040000fa
:04018000de04000099
:020000040000fa
:04018400de04000095
:020000040000fa
:04018800de04000091
:020000040000fa
:04018c00de0400008d
:020000040000fa
:04019000de04000089
:020000040000fa
:04019400de04000085
:020000040000fa
:04019800de04000081
:020000040000fa
:04019c00de0400007d
:020000040000fa
:0401a000de04000079
:020000040000fa
:0401a400de04000075
:020000040000fa
:0401a800de04000071
:020000040000fa
:0401ac00de0400006d
:020000040000fa
:0401b000de04000069
:020000040000fa
:0401b400de04000065
:020000040000fa
:0401b800de04000061
:020000040000fa
:0401bc00de0400005d
:020000040000fa
:0401c000de04000059
:020000040000fa
:0401c400de04000055
:020000040000fa
:0401c800de04000051
:020000040000fa
:0401cc00de0400004d
:020000040000fa
:0401d000de04000049
:020000040000fa
:0401d400de04000045
:020000040000fa
:0401d800de04000041
:020000040000fa
:0401dc00de0400003d
:020000040000fa
:0401e000de04000039
:020000040000fa
:0401e400de04000035
:020000040000fa
:0401e800de04000031
:020000040000fa
:0401ec00de0400002d
:020000040000fa
:0401f000de04000029
:020000040000fa
:0401f400de04000025
:020000040000fa
:0401f800de04000021
:020000040000fa
:0401fc00de0400001d
:020000040000fa
:04020000de04000018
:020000040000fa
:04020400de04000014
:020000040000fa
:04020800de04000010
:020000040000fa
:04020c00de0400000c
:020000040000fa
:04021000de04000008
:020000040000fa
:04021400de04000004
:020000040000fa
:04021800de04000000
:020000040000fa
:04021c00de040000fc
:020000040000fa
:04022000de040000f8
:020000040000fa
:04022400de040000f4
:020000040000fa
:04022800de040000f0
:020000040000fa
:04022c00de040000ec
:020000040000fa
:04023000de040000e8
:020000040000fa
:04023400de040000e4
:020000040000fa
:04023800de040000e0
:020000040000fa
:04023c00de040000dc
:020000040000fa
:04024000de040000d8
:020000040000fa
:04024400de040000d4
:020000040000fa
:04024800de040000d0
:020000040000fa
:04024c00de040000cc
:020000040000fa
:04025000de040000c8
:020000040000fa
:04025400de040000c4
:020000040000fa
:04025800de040000c0
:020000040000fa
:04025c00de040000bc
:020000040000fa
:04026000de040000b8
:020000040000fa
:04026400de040000b4
:020000040000fa
:04026800de040000b0
:020000040000fa
:04026c00de040000ac
:020000040000fa
:04027000de040000a8
:020000040000fa
:04027400de040000a4
:020000040000fa
:04027800de040000a0
:020000040000fa
:04027c00de0400009c
:020000040000fa
:04028000de04000098
:020000040000fa
:04028400de04000094
:020000040000fa
:04028800de04000090
:020000040000fa
:04028c00de0400008c
:020000040000fa
:04029000de04000088
:020000040000fa
:04029400de04000084
:020000040000fa
:04029800de04000080
:020000040000fa
:04029c00de0400007c
:020000040000fa
:0402a000de04000078
:020000040000fa
:0402a400de04000074
:020000040000fa
:0402a800de04000070
:020000040000fa
:0402ac00de0400006c
:020000040000fa
:0402b000de04000068
:020000040000fa
:0402b400de04000064
:020000040000fa
:0402b800de04000060
:020000040000fa
:0402bc00de0400005c
:020000040000fa
:0402c000de04000058
:020000040000fa
:0402c400de04000054
:020000040000fa
:0402c800de04000050
:020000040000fa
:0402cc00de0400004c
:020000040000fa
:0402d000de04000048
:020000040000fa
:0402d400de04000044
:020000040000fa
:0402d800de04000040
:020000040000fa
:0402dc00de0400003c
:020000040000fa
:0402e000de04000038
:020000040000fa
:0402e400de04000034
:020000040000fa
:0402e800de04000030
:020000040000fa
:0402ec00de0400002c
:020000040000fa
:0402f000de04000028
:020000040000fa
:0402f400de04000024
:020000040000fa
:0402f800de04000020
:020000040000fa
:0402fc00de0400001c
:020000040000fa
:04030000de04000017
:020000040000fa
:04030400de04000013
:020000040000fa
:04030800de0400000f
:020000040000fa
:04030c00de0400000b
:020000040000fa
:04031000de04000007
:020000040000fa
:04031400de04000003
:020000040000fa
:04031800de040000ff
:020000040000fa
:04031c0038040000a1
:020000040000fa
:04032000de040000f7
:020000040000fa
:04032400de040000f3
:020000040000fa
:04032800de040000ef
:020000040000fa
:04032c00de040000eb
:020000040000fa
:04033000de040000e7
:020000040000fa
:04033400de040000e3
:020000040000fa
:100400004f1321000eff26000e018800000000009f
:10041000000020000000e000020032000001200087
:100420002002880014000700940107000000e0008b
:1004300003003a0040ff21000100200002003700c5
:100440000000200001002000810f70000100320038
:100450000f000700000020000000e0000200320052
:10046000000002000000000062190200000000000d
:100470000040da000000fe00401a20000000e0000a
:1004800002003200002020009001880000000600d9
:10049000a1028800800478000000eb001f003700f4
:1004a000e284440054a0b4009905ba00e2844400f8
:1004b00054a0b4009906ba00e284440054a0b400e9
:1004c0000006eb00476fde00fd07b200ae018800ba
:1004d000636ce10003003a000ad801000000eb0061
:1004e0000e003700606ce10008003a00004deb00a0
:1004f0000a05e800020039003420ec000af0a000f0
:100500008b05e900f9ff3e00040037006168e10057
:10051000010032000086eb000b00070019c7ba008b
:100520001905ba000e04e00003003a000a00e000da
:10053000dbff3a0000000600fe07b200ae028800b2
:100540008a047800f5ff37000cd0a300e20f4d00bd
:100550001c003b0089027800354dba000a05e8000e
:10056000020039003420ec000af0a0008b05e900fd
:100570000f003200254dba000a05e80002003900dc
:100580003420ec000af0a0008b05e90008003200de
:100590000c00e0000600320015cdba000a05e800a4
:1005a000020039003420ec000af0a0008b05e900bd
:1005b0008984e80054a0b4000b00e000e2ff3a0098
:1005c000000006009902ba00055d78008b05e9007d
:1005d000f7ff3200c82ade00055d78008b05e900d0
:1005e000f3ff32000c00e000f1ff320019ddba0029
:1005f000eeff3700fa1c040000000000f8190400a8
:1006000000000000601b040000000000b81b040094
:1006100000000000121c040000000000d2060400cc
:100620000000000076060400000000004006040000
:10063000000000003200f8003400f800881f780045
:1006400018002000a80188000820200008d0fe0023
:100650004f0478000000fa00c028a900ffff37000f
:100660003200f8003400f800881f780018002000dd
:10067000a80188000820200008d0fe004f04780060
:100680000000fa00c068a900ffff37003200f80040
:100690003400f800881f780018002000a8018800a6
:1006a0000820200008d0fe004f0478000000fa0067
:1006b000c048a900ffff37003200f8003400f800fe
:1006c000881f780018002000a8018800082020005a
:1006d00008d0fe004f0478000000fa00c088a9008e
:1006e000ffff3700809fbe000000fa00f188800005
:1006f000e0888000808f500010003a00018980005f
:1007000000102000008060000000e0000b003a00b4
:1007100000000000e111800000082000008060005f
:100720000000e000fbff3200008980000090a00084
:10073000008988002188a9001c0037000188a900d1
:1007400014003700f0888000104078000080fb0023
:1007500040128800f08880000000e800f0888800df
:10076000f1888000a0122100808f500002003a0022
:1007700020122100f0888800008980000080a100fc
:1007800000898800f1888000e0888000808f500018
:1007900005003200f0118000700060000000e000f1
:1007a000e8ff320001003700000000000080fa007e
:1007b0004f00be0000400600809fbe000000fa000f
:1007c00018003700c18880002012800000407800a7
:1007d00080487800c08880000000e800c088880059
:1007e000c188800020132100808f500002003a0051
:1007f000a0122100c0888800008980000010a1009c
:1008000000898800c1888000d0888000808f5000d7
:1008100004003a00008980000000a00000898800e0
:1008200004003700f0118000620060000000e0006a
:10083000e4ff32000168a9000080fa004f00be000a
:1008400000400600801f78000000fa00e0118000e0
:10085000620060000000e000010032003c22a900bc
:100860000628a9000080fa004f007800004006002a
:100870000000fa0017a8a9000080fa000040060056
:100880003600f800809fbe00829fbe00849fbe009d
:10089000869fbe003200f8003400f80010002000ef
:1008a000a00188000020200000d0fe000200fa0015
:1008b0000040eb00004f7800330037001e80fb0043
:1008c000ea00b90080007800c002210000804000ea
:1008d000100078000000e0002a0032001e81fb00ba
:1008e000ea10b900e6004000c0022100008040008c
:1008f0001000be0061004000e0804800ea11b9002d
:100900008201780022032100028141000089be009b
:100910001e80fb00ea00b900e6004000c002210092
:10092000008040001001be001e80fb00ea00b900fc
:100930008080e800c0022100008040001000be005e
:10094000800f5100818f59000e003a001e80fb007d
:10095000ea00b90080007800c00221000080400059
:1009600010007800000001001e80fb00ea00b900c2
:100970008000780020032100008140006000b80062
:100980000089be001e4fe8001e407800e94f50006d
:10099000caff36000028a9000080fa003400f900e0
:1009a0003200f9004f03be004f02be004f01be00ef
:1009b0004f00be003600f900004006000040da009b
:1009c0000000fe00ec8747008e1f78006c87570000
:1009d00044002000041f7800000f78006c87570047
:1009e00002afbe00e1bf9f006c8057009e0607006b
:1009f0001e00be004f077800cf00b10000000600c7
:100a0000ec8747008e1f780011002000a1bf9f00d7
:100a10006c875700002f78006c8057009406070001
:100a20001e0078004f077800cf00b10000000600dc
:100a30000600fa00000f78000e80e8000108780038
:100a4000640047000208780000000000e111800007
:100a500000082000008060000000e000fbff320082
:100a60000e80e80010007800e40047009100780054
:100a7000dd0807000080fa00000006000000050005
:100a80006022b800060220000000d0008180d20061
:100a90000482d2008582d2000000a000020252002f
:100aa00083825a00030031000202420083824a001e
:100ab0000000a1000603e900f3ff3a000000060071
:100ac000889fbe008a9fbe00800478000200e0007c
:100ad0005a00320001407800814c78008281440045
:100ae000f1f99f00e20f5100540036009144980044
:100af000a1449800e1f99f00d1f99f00e60f510051
:100b00004e003600b1449800c1f99f00e80f510033
:100b10004a0036000905ea00630565000a844400be
:100b20000a055100c1ff2f00010565000080fb0090
:100b30008000eb0012102000131020004406070074
:100b4000008cbe000a01440060b99f0071b99f008b
:100b5000e80f550039003600200498003104980051
:100b6000400498005104980020b99f0031b99f00bb
:100b700040b99f0051b99f00f80f55002f00360073
:100b80006004980071049800000c9800110c980003
:100b9000200c9800310c9800400c9800510c9800e3
:100ba00020b19f0031b19f0040b19f0051b19f0023
:100bb00060b19f0071b19f0000b99f0011b99f0003
:100bc00064016400780141000204440002055500fc
:100bd0006011b8000203be000002be000403be00a4
:100be0006022b80000007200818072000201730070
:100bf000838173000f00370008027800009abe005e
:100c0000029abe00009abe000292be00000c98003c
:100c1000110c9800220c9800330c9800400c98009e
:100c2000510c9800620c9800730c98000a02b100f5
:100c30000802b000ff0f5500efff3e0009007800ea
:100c40004f05be004f04be000000060081848000f6
:100c50009100780085000700110020000000e000ee
:100c6000050035008084800090007800a0002000fe
:100c7000c9000700cf00de000100ea000000060006
:100c8000000006006009210000000600fdff0700cb
:100c9000a08488009084880000000600889fbe0021
:100ca0008a1f7800800478004900900002047800d0
:100cb000800f54000100360000047800080178001d
:100cc0006a8544001a007800940007001a00440066
:100cd000000d7800e8844400990c14000048eb00f3
:100ce0004f0578004f04be00000006001000780099
:100cf0004fff3700900190000388a30001003200ed
:100d0000e6ff37000348a30001003a00f7ff0700a1
:100d100000000600889fbe008a1f7800000478004b
:100d2000010578000000eb000800e0001a00320026
:100d3000180090000058a3000c003200ea044400a0
:100d400068009000990f100008003600b809900064
:100d50000001eb0082007800080078000300010029
:100d60000080eb001900e0000b003200740044002a
:100d70000008eb006c0044000008eb006a0044002f
:100d80000008eb000000eb000a00e0000200320067
:100d9000180078001aff07004f0578004f04be00c6
:100da00000000600889fbe008a1f78000004be0075
:100db0000000eb000800e00029003200180090005d
:100dc0000058a300120032006a0544006800900039
:100dd0009a0f100008003600b80990000001eb00df
:100de0008200780008007800030001000080eb001a
:100df0001a00e0001a003200740044000008eb0002
:100e00006c0044000008eb006a0044000008eb009e
:100e1000780a900008109000800f52000600310000
:100e20000002520011002000cfa2de00612bb900a9
:100e300018007800e3fe07000002200008004000d0
:100e40000008eb007e0044000008eb000000eb000f
:100e50000900e0000200320018007800e8fe0700f8
:100e60004f0578004f04be0000000600889fbe00ba
:100e70008a1f780080047800010578000900780056
:100e800046000700000478008a0178000801780015
:100e900011002000090078000a0007008000780097
:100ea0000080eb00888f500001003a000000eb004a
:100eb0004f0578004f04be000000060010007800c7
:100ec000dbfe3700889fbe008a1f7800810478000f
:100ed0000204780089c5b9000900e00001003a0069
:100ee0000004eb000a01780080007800030078001d
:100ef0007eff0700800078008a8f500003003200d8
:100f0000050009008980d8000004780008007800f6
:100f10004f0578004f04be000000060080017800f5
:100f200002003700b15978000201e9000200e00038
:100f3000fcff3a00000006000200fa000001780001
:100f400001007800e2ff9f00900090000188a3005c
:100f500006003200ea0140009300780082587800d1
:100f60000280fb0081097800090037001200200090
:100f70008f80e9005dff0700800078000080eb00b3
:100f80000100e00002003200eff897000180fb0052
:100f90000080fa0000000600e7ff370080007800bc
:100fa000040037003104e00002003a000000510064
:100fb00000000600010178000108a300f9ff3a00d3
:100fc0008101780031017800f4ef2f000202420025
:100fd0000281ea00020162000408280004016100a5
:100fe000f7ff320083007800010178003104e0004f
:100ff000fdff3a0000005100000006000000fa006a
:10100000cfb8970068815700808480001000780076
:101010002d0007000080fa000000060000003700e5
:10102000ea874700889fbe008a9fbe008e1f780017
:1010300000047800030078007287570084e22600dd
:1010400055c72600049fbe00c3962200030f7800f8
:101050006c875700004feb0011059000a104900031
:10106000910578000200e0000200320002077800db
:1010700001003700728757000000e00002003a00cc
:101080000e007800c5ff07000a00e00003003500ed
:101090008a0f5000010036000a0078000b02780029
:1010a00089017800000178008e007800080078003f
:1010b000270007004f0778004f05be004f04be0011
:1010c000af00b100000006000200fa00881f78009f
:1010d00000047800e2bf9f00648157000800780098
:1010e000d1010700980090000148a30001003200e0
:1010f0000080eb004f0478000080fa00000006003a
:10110000889fbe008a1f7800800478004900900004
:1011100002047800800f54000100360000047800bb
:10112000080178006a8544001a0078007bff0700f8
:101130001a004400000d7800e8844400990c140063
:101140000048eb004f0578004f04be000000060089
:10115000f2874700889fbe008a9fbe008c9fbe001a
:101160008e1f780080047800010578000204780062
:10117000830578006107620002003a008b0f54007b
:1011800008003900080178008a007800090078001a
:10119000d8fe07008b0f5400020039008805780044
:1011a0001e003700088655000c017800f00f56002d
:1011b0000100360002012000010220007e8057005d
:1011c0003ffe07008c067800050037000201200072
:1011d000fe80570009007800c6fe0700f086560022
:1011e000ef8f5600f9ff3e004461de0000ff2f0044
:1011f0008091b9000c014100fe8057000900780081
:10120000bcfe07000e00e00004003a000801780070
:101210008a00780009007800b6fe07000b0078000d
:101220004f0778004f06be004f05be004f04be00ba
:101230002f01b100000006000000050000000500bd
:1012400000000500000178000040eb008080fb00fa
:1012500081804000231021008181410013427800e9
:101260000404e00004003a00301021008100400036
:10127000114078000000060092017800934f520060
:1012800005003a0030102100810040001140780034
:101290000309e800010037000040e800ea4f500071
:1012a000eaff360000000600f6874700889fbe0070
:1012b0008a9fbe008c9fbe008e1f7800800478003d
:1012c0000104780083057800040678000000eb0034
:1012d000c0b79f008080eb00d1b79f00e0b79f00b0
:1012e000f2b79f000008200080bf9f0098007800a0
:1012f000010078000005eb00010037000a05e80056
:10130000304178000204e0000300320053c2b30011
:10131000834f5100f9ff3a000a00e0000400320058
:101320000a0178000900780072fe0700180c4500d9
:101330001807780050c2b3009e4f100033013a00e6
:101340000e07e8000e0c780010003700cfb09700b1
:101350000100a0000b003700cfb097000110a000e3
:1013600008003700cfb097000120a000050037002b
:10137000cfb097000130a00002003700cfb0970037
:101380000140a000c1b79f00000ce80018007800e1
:1013900090407800b2c2b30082cf5000f1ff32001b
:1013a00007003c0002c2b30082cf5000f0ff3200c1
:1013b00032c2b30082cf500007003a00efff37007f
:1013c000d2c2b30082cf5000e0ff320002c3b300ac
:1013d00082cf5000e0ff3200a2c2b30082cf5000a3
:1013e0000d003a00000ce8001c80e900000e7800b7
:1013f00010007800e0b79f000000e0000f003d0003
:10140000cfb097000100a200c1b79f000000ea0022
:10141000e0b79f0009003700ef020700e0b79f0028
:1014200001003700000ce800180078009000fb0075
:101430000103b100e98f5000faff36004fb097006a
:101440000008a300020032000010a100c0b79f00f6
:1014500018007800e1c2b30090cf100016003a00e7
:101460008000eb00d1b79f000000e800000c78007e
:10147000a1c2b30090cf100006003a00000ce800b3
:101480001c80e900000e780010007800d0b79f00a3
:1014900009003700d0020700d0b79f0001003700d5
:1014a000000ce800180078009000fb000103b10078
:1014b000e98f5000faff36000800780061ff07004e
:1014c00080467800180078001000fb00e802070052
:1014d00091062000810f50003800320012003c00bd
:1014e00041062000810f5000340032000a003c0009
:1014f00011062000810f500020003200310620002c
:10150000810f50009a00320051022000810f5000dc
:10151000ae003a00a700370071062000810f50008e
:10152000aa003c008200370001072000810f500014
:101530005c00320007003c00e1062000810f5000f3
:1015400074003200f1062000810f50009f003a0025
:101550003900370051072000810f5000270032006a
:1015600081072000810f5000420032003107200027
:10157000810f500095003a00850037008d80fb00f8
:101580000c01780000fe2f000f004000bf02070092
:101590000000e0009c00320018007800000ce80019
:1015a0009041780002fe2f000f014100f8805700a3
:1015b0000900780021ff07000e0037008d80fb0036
:1015c0008c0178001200200000fe2f000f00400068
:1015d000cd0207000000e0008b003200180ce8008c
:1015e00002fe2f000f014100f8805700090078002b
:1015f000ba00070000054500840037008d80fb001d
:101600008c0178000001eb0000fe2f000f0040006d
:10161000bd0207000000e0007b003200180ce8006b
:1016200002fe2f000f014100f880570009007800ea
:101630008d010700efff37008d80fb008c017800e3
:101640000001eb0000fe2f000f004000ae0207007b
:101650000000e0006c003200180ce80002fe2f00d1
:101660000f014100f880570009007800f5000700dd
:10167000e0ff37008d80fb008c0178000001eb005b
:1016800000fe2f000f0040009f0207000000e00056
:101690005d00320018007800000ce80090417800ee
:1016a000160037008c0178000001eb00010f2000cc
:1016b00000fe2f000f004000930207000000e00032
:1016c00051003200180ce8000fb097009fb097004f
:1016d0002fb19700bfb19700e00f5000e08f580086
:1016e000e00f5900e08f590003003a008001eb0041
:1016f000c20f21004000370083c7b30002fe2f0055
:101700000f014100f8805700090078007f010700b1
:10171000b8ff37000b0145008d80fb008c0178007d
:1017200000fe2f000f004000d002070036003700f7
:101730008d80fb000c01780000fe2f000f004000a0
:10174000520207000000e0002f003200180078006d
:10175000000ce8009041780002fe2f000f014100cc
:10176000f880570009007800b4fe0700a1ff370099
:1017700000c8b30080cf560023003a00180ce800e0
:101780001c80e900000e7800104078000d00370042
:1017900000c8b30080cf56001b003a00180ce800c8
:1017a0001c80e900000e78008001eb001001780039
:1017b0001100370001c8b30081cf560012003a0073
:1017c000180ce800e0df9f000800370050c2b300ab
:1017d000e0df9f000e0c78000000eb00c0b79f0018
:1017e000e0b79f008080eb00d1b79f00130020007e
:1017f000e2fd2f000f014100f8805700090078003a
:1018000007fe07007bff3700180ce8000a0078008d
:101810004f0778004f06be004f05be004f04be00c4
:101820006f01b100000006008200fa00889fbe0030
:101830008a1f78000005780082047800c13f9f006d
:101840000004eb00100037000902780088017800de
:10185000a2f72f000f01410081f72f008f80400079
:101860000a00780090fe070008004000880f500032
:1018700004003d00b0042000908988000084eb0043
:1018800004003700000478004f3897001004e0008f
:10189000edff3a00080078004f0578004f04be00c5
:1018a0000080fa00000006000000fa00cfb89700a0
:1018b00068815700808480001000780002fe0700d5
:1018c0000080fa0000000600040007005d00070029
:1018d000d3fd0700e40007000c013700ec87470048
:1018e000889fbe008a9fbe008c9fbe008e1f78001e
:1018f0000006780001047800180790002805900081
:1019000098067800cdb79f00b80590003202be005f
:101910002203be000400be000601be004f18de0018
:101920006011b8008000eb00d0b79f00e1b79f00c6
:10193000f2b79f0083bf9f00800478000900e00099
:10194000060032006000b8006011b80004025000c8
:101950008582580006035900878359000e00e00075
:10196000020035000d10a100cdb79f000900e00076
:1019700005003a004fb097000028a30002003a008b
:101980000038a300020032008a00e900010037009d
:101990008a007800f8815700a20020000800780033
:1019a0005f0007000900e00003003a00cfb0970095
:1019b0000128a300080032000000e9000081450072
:1019c000b1c2b3000900e00001003200d1c2b3008f
:1019d00001497800060037000138a30004003200f6
:1019e0000000e9008080450002c2b3008248780010
:1019f000480190000201e90000015100808045008b
:101a00004fb297008a0178000c007800d0fd0700e3
:101a10009c0090000188a300040032009800900010
:101a2000810f500001003d00010078004f07780051
:101a30004f06be004f05be004f04be00cf00b100f0
:101a4000000006000200fa00889fbe008a9fbe00c8
:101a50000005780001047800020078001801900069
:101a6000a805900098007800b1bf9f00b8049000ce
:101a70000200e000020035000110a100b1bf9f008c
:101a8000ea815700820020008b0078003002be00ff
:101a90002003be0008007800210007003fb997002e
:101aa000f0006100040032000000e9008080440082
:101ab00002c3b300824878003fb99700e800610094
:101ac000040032000000e9008080440002c2b3003c
:101ad00082487800480190000201e90000015100ad
:101ae000808044003fba97008b0178000a0078009c
:101af00097fd07009a0090000188a30004003200bf
:101b000098009000810f500001003d000100780016
:101b10004f05be004f04be000080fa000000060022
:101b2000f4874700889fbe008a9fbe008c9fbe003e
:101b30008e1f78000605be000404be0081bf9f0012
:101b400082b79f00f3b79f00b0009000e1b79f00fd
:101b50001301780092b79f00900690004006900015
:101b60000c06e9000d00e00001003d001d00200012
:101b7000efb197000c8041000048eb001e002000f0
:101b80001f0037000c06e9000fb09700cf80de0081
:101b90006109b900a0b79f00b1b79f00c2b79f000d
:101ba000d3b79f000203be000002be000800be00c3
:101bb0000a01be00d902070000077800efb09700c5
:101bc0000c80400003c3b300034847008d06e900c2
:101bd0000fb897000000e90080bf9f002fb2970068
:101be000bfb297004fb39700dfb397000800be0065
:101bf0000a01be00c20207000205be000004be00ca
:101c00000c00e0000d003200e00f5400e08f5c009b
:101c1000e00f5d00e08f5d00daff3a000d00e000ac
:101c2000d8ff3c008fb897000100e00003003400ab
:101c30001fb197000218a300d2ff3a000e00e00087
:101c400002003a00ffb197001340a1000c00780099
:101c50004f0778004f06be004f05be004f04be0080
:101c60004f01b100000006000200fa00889fbe008c
:101c70008a9fbe008004780001047800020078008a
:101c8000180190002805900098007800b1bf9f00cf
:101c9000b80590000200e000020035000110a1002c
:101ca000b1bf9f00ea815700a20020008a0078009f
:101cb0003002be002003be000800780098ff070035
:101cc000480190000201e9000001510080804500b8
:101cd0003fba97008a017800090078001cfd0700d0
:101ce000990090000188a300040032009800900041
:101cf000810f500001003d00010078004f05be003b
:101d00004f04be000080fa0000000600fa8747007a
:101d1000889fbe008a9fbe008c9fbe008e1f7800e9
:101d20008004780001047800820578001801900092
:101d30002805900018077800b80090000200e00025
:101d4000020035000e10a100010037001200200033
:101d500070006700e0b79f00090032003b02be0040
:101d60002b03be00e00f5200e08f5a00e00f5b0033
:101d7000e08f5b00020032008a86e9000100370034
:101d80008a067800e8026700f5b79f00010032007c
:101d90008d06e9003b02be002b03be00e4af9f00ae
:101da000f5af9f0086b79f0097b79f004806900049
:101db0000c06e9000c8040000048eb00efb29700f1
:101dc0007fb297008903780081047800d8af9f0024
:101dd000020478008bbf9f008a05780003457800d5
:101de0002b0037000c06e9006fab97006f00630013
:101df000e90f500002003c000003b0000100370072
:101e00007005b0000a03fb001604b100f90f53007f
:101e10000c003e00000378000650a0001606b1003a
:101e2000f90f530007003e00b4b79f00a5b79f000d
:101e3000c7b79f0047010700cfb39700afb2970025
:101e40003fb297000c834400004b78000804e9007f
:101e50008d06e9006fa89700ffa897000fb19700c3
:101e60009fb19700460020008301d1000281d3007a
:101e70008180d3000080d3000603e900faff3a0016
:101e8000e0af9f00f1af9f0082b79f0093b79f0024
:101e9000e10f56000f0036006fa89700ffa89700cb
:101ea0000fb197009fb19700e00f5000e08f5800ee
:101eb000e00f5900e08f5900caff3a000800e00027
:101ec000c8ff3c000d00e000020034000e18a30023
:101ed000c4ff3a0089007800f4b79f0087047800b7
:101ee0005fac97008a4178000b0578008fbd9700a2
:101ef0000500e000120032003b02be002b03be00d2
:101f0000e4af9f00f5af9f0086b79f0097b79f0093
:101f1000e00f5200e08f5a00e00f5b00e08f5b00a3
:101f2000070032000c06e9000c80400003487800ee
:101f30000c06e9000c80400002c3b30002487800a0
:101f4000ffb297000500e000040032000c06e90033
:101f50000c80400002c2b3000248780048019000a3
:101f60000201e9000c0151008c8040000e02780053
:101f70008a0178000900780075fc0700990090003c
:101f80000188a3000400320098009000810f5000e7
:101f900001003d00010078004f0778004f06be00a9
:101fa0004f05be004f04be00af01b10000000600a7
:101fb000800078001000200002022000828f500074
:101fc00004003200e9805000e48f50000100360028
:101fd0000000eb0000000600889fbe008a1f78000a
:101fe0008004780009047800880478003945780076
:101ff0000a00fb00eeff07000000e000f9ff3a00d6
:10200000b0c2b300804f550005003200d0c2b3000b
:102010008000eb00804f550005003a0002003700b9
:102020008000eb0001003700110020000804e800e8
:102030000000eb0003003700ea00b9000200500086
:102040000003b0003801fb0003fd2f008281410036
:10205000e98f5100f8ff36000100e00001003a006e
:102060000000ea004f0578004f04be0000000600a3
:10207000f1fb2f0080804000f98f500001003e00ee
:102080000050a00000000600f9ff3700881f78000c
:102090000004780000082000808f500017003500f1
:1020a00010082000808f50000b0034003008200002
:1020b000808f500011003a00920078006880500034
:1020c000000978003002be002003be00049cbe0060
:1020d0000694be0007003700920278006480520028
:1020e000000978001000be00a5000700009cbe009b
:1020f0000294be0010002000010037000000eb0039
:102100004f0478000000060084082000848f5000ef
:102110001d0032000d003c0014082000848f500088
:102120002700320002003c000408200004003700b1
:1021300024082000848f50002a0032004408200028
:10214000848f500048003a003b003700040a20000a
:10215000848f50002c00320004003c000409200051
:10216000848f500040003a002d003700020c200000
:10217000828f50001e003200020f2000828f50001c
:1021800039003a00300037009380e9000200e00097
:1021900005003200810978001102fb00cfa2de00a9
:1021a000612bb9002d0037008109780011427800b9
:1021b0000482fb008002eb006033b8002700370088
:1021c00013027800e40052000200e0000a0032002e
:1021d000810978001102be004fabde008603780053
:1021e0001e00370093027800e88052000e0037008e
:1021f00093027800e4805200810978001102be0049
:102200006033b800150037009380e9008109780039
:1022100011027800cfa2de00612bb9000f00370059
:1022200013037800e8005300810978003102be00f2
:102230002103be00090037009380e9000200e0009e
:1022400002003200f1ff37009380e9008109780035
:10225000110278008002eb006033b8000498be00e1
:102260000690be0010000500000005004408200094
:10227000848f5000270032000a003c001408200020
:10228000848f50001c00320024082000848f5000ee
:102290002600320004082000848f50002c003a00f1
:1022a0001c00370004092000848f50001f003200fa
:1022b00004003c0084082000848f500024003a0071
:1022c00007003700040a2000848f500011003200fc
:1022d000040c2000848f50001d003a0006003700d7
:1022e0009380e90081097800910078000108780066
:1022f00082487800150037009380e9008109780052
:102300009100780001087800cf91de008288be003d
:102310000e0037009380e900810978009100780071
:102320000108780082087800080037009380e900ef
:102330008109780091007800010878006112b900e5
:10234000612bb9008498be008690be001000050085
:1023500000000500f1f92f0080804000f98f500047
:1023600001003e00f005b20000000600f9ff370052
:102370000000060045fa0700fdff0700fcff3700dc
:10238000810378001d0007000001be006000b80056
:102390000478a30013003a006220e10015003e001b
:1023a0000d0039008301d1000281d3008180d30068
:1023b0008301d1000281d3008180d3008301d10049
:1023c0000281d3008180d3000538b000c42add002b
:1023d000f300b2008381720007f0a70003f0a000b1
:1023e0000000060083ff2700020020006110b900f2
:1023f000f9ff370003ff2700f7ff3700c70ade00a9
:10240000f107b200f50fb20008003200e1cf420040
:10241000020032000170a00024000500810f70004e
:10242000010032000408050044000500810f70001f
:1024300002003a00140005008502e9000000400097
:1024400081c04800fcff3b000170a0002400050093
:10245000020ab900001bb9000200b8008100420066
:10246000810043000000060000c0da000000060002
:1024700000c0da0000000600889fbe008a9fbe00f0
:1024800030044200b0844a0030054b0090854b0078
:102490006000b1000898be000a90be000440e10050
:1024a00005c8e10006d0e10007d8e10002003100d4
:1024b000680040001008e8004f05be004f04be0051
:1024c00000000600889fbe008a9fbe003004be0048
:1024d0002005be000418540005985c0006185d0035
:1024e00007985d00110020000440e10005c8e100ec
:1024f00006d0e10007d8e100010039008000eb00c0
:10250000108810004f05be004f04be0000000600fa
:10251000f4874700889fbe008a9fbe008c9fbe0044
:102520008e1f7800d0b79f00e1b79f00f2b79f00e1
:1025300083bf9f000605be000404be00cfae970017
:102540000000eb00c0b79f00b0b79f00a0b79f008e
:1025500090b79f0080b79f00000678004fb09700ab
:10256000000140000000e00006003d003c000700c4
:102570000f074700450007000f004000beff07009f
:1025800005003700360007000f0747003f0007002f
:102590000f004000cbff07004fb797000e00e00090
:1025a0000c0035005fb29700efb297007fb3970041
:1025b0008fbb970010002000010020006011b800c0
:1025c0000002720081827200020373008383730031
:1025d0001c0007000c06e80001042000810f5600d3
:1025e000deff3a000e00e00005003d000802be00dc
:1025f0000a03be0000fe2f000f0040009eff0700f0
:102600000d00e00005003a000fb297009fb297005e
:102610002fb39700bfb397000a0007005fb0970081
:10262000efb097007fb197008fb997004f07780000
:102630004f06be004f05be004f04be004f01b10063
:1026400000000600010007000000060094b79f008c
:10265000a5b79f00b6b79f00c7b79f000000060050
:102660009fb097004f08de0002017000a2b79f00e4
:102670000fb097004f01de008180400081007100a3
:1026800091b79f000efe2f0000000600de007800cc
:102690004f09de00000040000000710080b79f007d
:1026a0006fa897004f01de0081804000010f71008c
:1026b0000e0007004f3ade000000400004007000ea
:1026c000e0af9f00090007000402420085824a0033
:1026d00006034b0087834b00dcff07000802be00a7
:1026e0000a03be0000fe2f00000006001fb2970084
:1026f000afb297003fb39700cfb39700000006003a
:10270000881f780018002000881f780080ff0700cd
:102710008f87e9004f04780000000600801feb005f
:102720007bff07008f87e90000000600889fbe003e
:102730008a9fbe00e00f5000e08f5800e00f590064
:10274000e08f59000c003d006044b8006055b800af
:102750000000540081805c0002015d0083815d0007
:10276000180020001500070008003d0018000700b1
:102770000004eb00050037000004eb000f00070029
:1027800002003d001200070018002000dcff0700d7
:102790000800e000060032006022b8006033b80094
:1027a0000000520081805a0002015b0083815b00bf
:1027b0004f05be004f04be0000000600e00f5200af
:1027c000e08f5a00e00f5b00e08f5b000000060026
:1027d0006044b8006055b8000402540085825c0073
:1027e00006035d0087835d0000000600889fbe0031
:1027f0008a9fbe008c1f7800e00f5000e08f5800c9
:10280000e00f5900e08f59000d003d006044b80012
:102810006055b8000000540081805c0002015d003a
:1028200083815d001c0020000820e10009a8e10070
:102830000ab0e1000bb8e1000d003d0008003700d0
:102840000006eb00e00f5200e08f5a00e00f5b0043
:10285000e08f5b0006003d006044b8006055b800a2
:102860000402540085825c0006035d0087835d00de
:10287000aaff07000c00e000060032006022b8004a
:102880006033b8000000520081805a0002015b00f2
:1028900083815b004f0678004f05be004f04be00e9
:0428a000000006002e
:020000040000fa
:1028a4001b5b0000324a0000001b00005b3000008c
:1028b4003b300000660000001b5b00003f3200005c
:1028c400356c0000002d00002d2d00002d2d000082
:1028d4002d2d00002d2d00002d2d00002d2d00008c
:1028e4002d2d00002d2d00002d2d00002d2d00007c
:1028f4002d2d00002d2d00002d2d00002d2d00006c
:102904002d2d00002d2d00002d2d00002d2d00005b
:102914002d2d00002d2d00002d2d00002d2d00004b
:102924002d2d00002d2d00002d2d00002d2d00003b
:102934002d2d00002d2d00002d2d00002d2d00002b
:102944002d2d00002d2d00002d0d00000064000031
:10295400735000004943000033330000434b000030
:102964002043000075720000696f00007369000065
:10297400747900002044000065760000656c000056
:102984006f7000006d6500006e740000204200004e
:102994006f6100007264000020440000656d000057
:1029a4006f200000202000002020000020200000d4
:1029b4002020000020200000202000002020000013
:1029c4002020000020200000202000002020000003
:1029d400200d000000530000312000002d200000d5
:1029e400636f00006e740000726f00006c7300006f
:1029f400204c000045440000310d0000005300004d
:102a0400322000002d200000636f00006e7400006f
:102a1400726f00006c730000204c000045440000fd
:102a2400320d000000530000332000002d20000070
:102a34006d6100006b6500007320000052470000c8
:102a4400422000004c450000442000007475000042
:102a5400726e000020770000686900007465000051
:102a64000d0000000d0000001b5b0000383b00005f
:102a740030660000005000006f740000656e0000b6
:102a8400746900006f6d00006574000065720000d9
:102a94003a200000256900002f340000303900007e
:102aa4003520000020200000200d00000a00000056
:102ab40042750000747400006f6e00002053000023
:102ac400313a000020250000730d00000a000000c8
:102ad40042750000747400006f6e00002053000003
:102ae400323a000020250000730d00000a000000a7
:102af40042750000747400006f6e000020530000e3
:102b0400333a000020250000730d00000a00000085
:102b14004163000074690000766500006c79000070
:102b2400206300006f6e0000747200006f6c000080
:102b34006c65000064200000636f00006c6f00008f
:102b4400723a0000202500007320000020200000bd
:102b54002020000020200000202000000d0a00009a
:102b64000020000020520000656400003a200000ac
:102b74002020000025690000202000002020000003
:102b840020200000202000000d0a0000002000008a
:102b94002047000072650000656e00003a200000c6
:102ba40025690000202000002020000020200000d3
:102bb400202000000d0a0000002000002042000038
:102bc4006c750000653a00002020000025690000b3
:102bd40020200000202000002020000020200000f1
:082be4000d0a000000000000d2
:020000040000fa
:102bec000000fa0000082000c01188003a22ef0013
:102bfc003c22ef0020022000f01188009001200000
:102c0c00001288004222ef004c22ef004e22ef000f
:102c1c005022ef005222ef005422ef005622ef0018
:102c2c005822ef005a22ef005c22ef002168a80026
:102c3c005d01070020122100f0888800201221007d
:102c4c00e0888800a0122100d0888800a012210002
:102c5c00c0888800008980000010a00000898800ce
:102c6c00008980000090a000008988000089800005
:102c7c000080a10000898800008980000000a1006c
:102c8c00008988000080fa00000006000200fa00ab
:102c9c000040eb00004f7800d0888000104f780087
:102cac00d08880000000e800d0888800d18880009f
:102cbc0020132100808f500002003a00a012210046
:102ccc00d0888800d1888000c0888000808f500018
:102cdc0003003a00008980000010a00000898800e1
:102cec00008980000000a100008988001e40780047
:102cfc000080fa00000006000600fa00881f780029
:102d0c000e81e80000097800640047000108780093
:102d1c000000eb00000f78000a00370000898000eb
:102d2c00620060000000e0000c003a000e80e80039
:102d3c00100078001e044000d4ff0700004c7800ff
:102d4c001e0fe80064004700100078009e00780019
:102d5c00808f5000f1ff39000100370000000000a7
:102d6c001e0078004f0478000080fa000000060076
:102d7c000200fa00004f78002188a900e08880004a
:102d8c001e487800e08880000000e800e088880099
:102d9c00e1888000a0122100808f500002003a00d0
:102dac0020122100e0888800008980000090a1009a
:102dbc0000898800f1888000e0888000808f5000b6
:102dcc0003003a00008980000080a0000089880080
:102ddc002188a8000080fa00000006000600fa0016
:102dec000e81e800000978006400470001087800b3
:102dfc000000eb00000f78000b0037000189800009
:102e0c0000102000008060000000e0000c003a0080
:102e1c000e80e800100078001e0040001040780082
:102e2c001e0fe800d2ff0700640047001000780076
:102e3c009e007800808f5000f0ff390001003700b1
:102e4c00000000001e0078000080fa000000060060
:102e5c000200fa000000eb00000f780001898000ee
:102e6c0000202000008060000000e0000100320023
:102e7c001e40a0000189800000102000008060002e
:102e8c000000e000010032001e30a000008980002c
:102e9c00610060000000e000010032001e00a00094
:102eac0000898000620060000000e0000200320037
:102ebc001e20a000010037001e10a0001e0078008c
:102ecc000080fa00000006000200fa00000f7800f3
:102edc00d08880009e00400020132100808f50007d
:102eec0009003900d08880009e004000201321008a
:102efc000000ea0000804000a11221000080400088
:102f0c001040780003003700d08880001e0040007d
:102f1c00104078000080fa00000006000800fa005b
:102f2c00640147000009780066004700010878003a
:102f3c008000eb000e80e8000108780010c0b300a0
:102f4c00004f78006600470010007800e70f500033
:102f5c0008003e0000898000620060000000e00074
:102f6c0004003a0064004700100078000000e00004
:102f7c0003003a000040eb00004f780036003700a9
:102f8c00d0888000e6004700910078008100400066
:102f9c00a01221000000ea0000804000e700600061
:102fac000e80e80001087800d1888000c08880007d
:102fbc00808f50000b003100d188800066004700e4
:102fcc001000780080804000c08880000000e9007c
:102fdc00808f5000170036000040eb00004f780047
:102fec0014003700d1888000c0888000808f50008a
:102ffc00100036000e80e80090007800a01221002e
:10300c0000804000d1888000810f50000900310001
:10301c000e80e80090007800a01221000080400093
:10302c00c1888000810f5000020039000040eb0085
:10303c00004f78001e4078000004e00006003200cb
:10304c0066004700100078009fff0700e40047006f
:10305c0091007800804878001e4078000080fa00cb
:10306c00000006000000fa0000898000610060008a
:10307c000000e0000f003a00d1888000c08880007a
:10308c00808f500005003600d088800080007800ca
:10309c00c08880000080500007003700d088800076
:1030ac0080007800c08880000080500068004000dc
:1030bc00010037000000eb000080fa000000060061
:1030cc000000fa00018980000010200000806000e0
:1030dc000000e0000f003a00f1888000e0888000da
:1030ec00808f500005003600f0888000800078004a
:1030fc00e08880000080500007003700f0888000d6
:10310c0080007800e088800000805000680040005b
:10311c00010037000000eb000080fa000000060000
:10312c000000fa00008980006200600000f0a70037
:10313c000000ea000000ea004f00de0000407800ca
:10314c000080fa00000006000000fa0001898000ef
:10315c00001020000080600000f0a7000000ea00d2
:10316c000000ea004f00de00004078000080fa000a
:10317c00000006000400fa00f01180008000eb0053
:10318c00008fbe001e00be00c001dd00020020004a
:10319c00e01180008000eb00000071008180710064
:1031ac000080fa00000006000000fa0039e2a800d6
:1031bc0038a2a8003882a8000080fa00000006009f
:1031cc000000fa0039e2a90038a2a9003882a9004f
:1031dc000080fa00000006000000fa0072cea90080
:1031ec0076cea8000080fa00000006000000fa006d
:1031fc0072cea90076cea9000080fa00000006006d
:10320c000000fa0072aea90076aea8000080fa00a9
:10321c00000006000000fa0072aea90076aea9000c
:10322c000080fa00000006000000fa0072eea80010
:10323c00a1738000000820000080600000f0a7004f
:10324c000000ea000000e9004f00de0000407800ba
:10325c000080fa00000006000000fa00730ea800bf
:10326c00a1738000001020000080600000f0a70017
:10327c000000ea000000e9004f00de00004078008a
:10328c000080fa00000006000000fa00732ea8006f
:10329c00a1738000002020000080600000f0a700d7
:1032ac000000ea000000e9004f00de00004078005a
:1032bc000080fa00000006000000fa00c8030700b6
:1032cc001e30ef000000eb00a5020700700120008b
:1032dc00980207000000eb00120307001200200008
:1032ec0003002000a0cf2100d9020700120020000b
:1032fc0003002000809f2100d50207006800070012
:10330c00700120001d020700c0808800f080800042
:10331c00e10f500008003200e10f500003003900ab
:10332c00e20f50000700320009003700c080800017
:10333c002081880006003700c08080003081880022
:10334c0003003700c080800040818800000000002e
:10335c00cdff07001cf0b7001cd0bf000004e0003c
:10336c00050032000200280001002800000028009f
:10337c004a0107000400370042818000318180003f
:10338c00208180004501070062000700dcff370048
:10339c000000fa00f0808000e10f500008003200bd
:1033ac00e10f500003003900e20f5000070032001b
:1033bc000800370010002000f0808800070037005c
:1033cc0020002000f0808800040037001e30ef0041
:1033dc00020037001e30ef00000000000080fa00f1
:1033ec00000006000000fa008fff07000004e00058
:1033fc000a00320078ff0700008180000000e00026
:10340c0003003a00e2ff070010c0b3001af0b70047
:10341c0040012000008188000900370073ff07007d
:10342c00008180000000e000040032000081800078
:10343c000000e90000818800010037001a70ef00dd
:10344c0085ff07000004e0000a0032006cff070053
:10345c00108180000000e00003003a00ccff070060
:10346c0010c0b3001bf0b700400120001081880091
:10347c000900370067ff0700108180000000e000a2
:10348c0004003200108180000000e90010818800e7
:10349c00010037001b70ef000080fa0000000600ee
:1034ac000000fa0020452900801f7800d0f60700a4
:1034bc008f87e90070452900801f7800ccf6070043
:1034cc008f87e900e0452900801f7800c8f60700c7
:1034dc008f87e90050462900d9f50700904a29004a
:1034ec00d7f5070050462900d5f50700d04e290026
:1034fc00d3f5070010502900d1f5070050512900d1
:10350c00cff5070040532900cdf507000080fa00e5
:10351c00000006000000fa0060532900801f7800ac
:10352c00def807008f87e900c08080004400de00d1
:10353c00801f7800d0532900801f7800d7f807002f
:10354c00e4875700210d21001ad0bf000080fb003a
:10355c00ec00b90000804000801f7800a0552900c5
:10356c00801f7800cdf80700e4875700210d21005b
:10357c001bd0bf000080fb00ec00b90000804000b5
:10358c00801f7800a0562900801f7800c3f8070020
:10359c00e4875700210d21001cd0bf000080fb00e8
:1035ac00ec00b90000804000801f7800a057290073
:1035bc00801f7800b9f80700e4875700a10e21009e
:1035cc00f0808000e600b90000804000801f780089
:1035dc00a0582900801f7800b0f80700e487570036
:1035ec00208180004400de00801f7800305b2900c1
:1035fc00801f7800a9f80700e4875700308180000d
:10360c004400de00801f7800905c2900801f780049
:10361c00a2f80700e4875700408180004400de00d8
:10362c00801f7800f05d2900801f78009bf8070050
:10363c00e48757000080fa00000006000200fa0040
:10364c00000f78001e007800c800de00000021008a
:10365c00010878000080fa00000006000000fa0063
:10366c0000002200f5ff07000080fa0000000600b1
:10367c000000fa000000eb00f0ff07000080fa00e9
:10368c00000006000000fa00000021001000780085
:10369c000000e00003003a0000002200e7ff0700f2
:1036ac00020037000000eb00e4ff07000080fa0086
:1036bc00000006000200fa00000f780073eea9006b
:1036cc001e00780000407800614060000080fb0024
:1036dc004f00dd00b173800001f0a100010070000b
:1036ec00b07388000080fa00000006000200fa00a7
:1036fc00000f78001e007800c800de00800021005a
:10370c00010878000080fa00000006000000fa00b2
:10371c0000002200f5ff07000080fa000000060000
:10372c000000fa000000eb00f0ff07000080fa0038
:10373c00000006000000fa00800021001000780054
:10374c000000e00003003a0000002200e7ff070041
:10375c00020037000000eb00e4ff07000080fa00d5
:10376c00000006000200fa00000f780073cea900da
:10377c001e00780000407800614060000080fb0073
:10378c00610060004e00dd00b173800001e0a1001b
:10379c0001007000b07388000080fa000000060081
:1037ac000200fa00000f78001e007800c800de004e
:1037bc0000012100010878000080fa0000000600da
:1037cc000000fa0000002200f5ff07000080fa005c
:1037dc00000006000000fa000000eb00f0ff0700fc
:1037ec000080fa00000006000000fa000001210031
:1037fc00100078000000e00003003a0000002200f6
:10380c00e7ff0700020037000000eb00e4ff0700b1
:10381c000080fa00000006000200fa00000f780099
:10382c0073aea9001e007800004078006140600073
:10383c000080fb00610060004d00dd00b173800072
:10384c0001d0a10001007000b07388000080fa0064
:10385c00000006000000fa0080ff0700d8ff0700f8
:10386c00aaff07000080fa00000006000000fa0022
:10387c007fff0700d7ff0700a9ff07000080fa00b1
:10388c00000006000000fa007eff0700d6ff0700cc
:10389c00a8ff07000080fa00000006000600fa00ee
:1038ac00000f78000e80e8000108780064004700e3
:1038bc00020878001e00780060ff07000e80e80008
:1038cc001000780089ff07006400470010007800a2
:1038dc00b3ff07000080fa00000006000400fa00a5
:1038ec008e80e800800878000e80e80010007800d8
:1038fc00100f78001e007800f10f500008003e00f9
:10390c001e007800e90f5000030036002001200053
:10391c00000f7800020037000000eb00000f780069
:10392c000e80e800100078000080e800100078009d
:10393c009e0040000e80e800100078000080e80037
:10394c00010878000e80e800100078000080e80084
:10395c0090007800c0112000808f500006003e00bf
:10396c000e80e800100078008000eb00640040003e
:10397c00010878000f0037000e80e8001000780076
:10398c001100200064004000010878000e80e8005f
:10399c00100078000080e8001000780031ee2f0055
:1039ac00808040000e80e800100078000080e80065
:1039bc00010878000080fa00000006000200fa00fe
:1039cc00000f78001e007800660040009000780020
:1039dc001e00780064004000100078000100010017
:1039ec000080fa00000006000000fa000000210030
:1039fc00f2ff070000012100f0ff0700800021000a
:103a0c00eeff070000002100b4ff070000012100b9
:103a1c00b2ff070080002100b0ff07000080fa0011
:103a2c00000006000400fa008e80e8008008780090
:103a3c000e80e80010007800f70f50000c003a00e0
:103a4c000e80e8001000780010000700d1cc2c008c
:103a5c000100b8004308de00004f780040c6b300f8
:103a6c009e40780080cf500003003e0004003700d9
:103a7c0000c0eb000300370040c6b300004f7800d5
:103a8c001e4078000080fa00000006000200fa00d8
:103a9c00000f78001e007800030007004200de00d3
:103aac000080fa00000006000600fa00e40047005f
:103abc008008780064004700100078000000400087
:103acc0080007800c0c02000008f4000415880006a
:103adc0000e02f0000806000e400470091007800b7
:103aec000080700040588800090ba8006400470053
:103afc0010007800ef0f50000e003e0064004700ed
:103b0c0090007800100020008100dd000e80e8009d
:103b1c000108780000000000815980000e80e80048
:103b2c0010007800008060000000e000faff320016
:103b3c000e00370064004700100078007000500041
:103b4c00110020008008dd000e80e80001087800dc
:103b5c0000000000915980000e80e80010007800f1
:103b6c00008060000000e000faff32001e007800c8
:103b7c00100078000080fa00000006000800fa002f
:103b8c00e6004700800878006600470010007800c7
:103b9c000000400080007800c0c02000008f400072
:103bac004158800000e02f0000806000e6004700d4
:103bbc00910078000080700040588800090ba80024
:103bcc006600470010007800ef0f50000e003e001a
:103bdc006600470090007800100020008100dd0096
:103bec000e80e80001087800000000008159800078
:103bfc000e80e80010007800008060000000e000fb
:103c0c00faff32000e003700660047001000780003
:103c1c0070005000110020008008dd000e80e800cc
:103c2c000108780000000000915980000e80e80027
:103c3c0010007800008060000000e000faff320005
:103c4c009e0078006400470011087800640047006b
:103c5c0010007800c400dd00640047000108780003
:103c6c0064004700100078000080fa000000060095
:103c7c000a00fa0066014700000978006800470056
:103c8c00010878006000b800008fbe008000eb00d7
:103c9c0064004700010878000b00370066004700fd
:103cac001000780080ff07008000eb001e0f400022
:103cbc005e97480064004700100078008000e80020
:103ccc006400470001087800640047009000780009
:103cdc006800470010007800808f5000efff39001b
:103cec0064004700100078000000e0000e00320075
:103cfc0064004700100078000000d1008000eb0049
:103d0c003e024000ae82480064004700100078007c
:103d1c008000eb000001be000400be0055f307005c
:103d2c0000007800010037000000eb000080fa0072
:103d3c00000006000200fa00000f78001e00780058
:103d4c00f70f500003003a00706ea80010c0b300cb
:103d5c00010037000040eb000080fa000000060074
:103d6c000200fa00000f78001e0078000000e0004e
:103d7c0017003a00002bef000006200010588800b6
:103d8c0030002000205888000003200030588800a4
:103d9c00082bef0000082000505888000008200075
:103dac000060880000f020001060880001eba80083
:103dbc00000000000160800000002800008060000e
:103dcc000000e000fbff320010c0b3000100370020
:103ddc000040eb000080fa00000006000400fa002e
:103dec008e80e800800878000040eb00004f7800df
:103dfc00120037001e80fb00ea00b900800078003a
:103e0c00c002210000804000900078000e80e80085
:103e1c0010007800808f500007003a001e80fb00d5
:103e2c00ea00b90080007800c00221000080400048
:103e3c008000eb00010878001e4fe8001e4078005f
:103e4c00e94f5000ebff36000080fa00000006003e
:103e5c000800fa008e80e8008008780064004700b3
:103e6c000288be002ad0bf000004a2000004e000bb
:103e7c00020032000040eb00280037000040eb004d
:103e8c00004f7800210037001e80fb00ea00b900cb
:103e9c0080007800c00221000080400010007800f3
:103eac000000e00018003a001e80fb00ea00b90098
:103ebc0080007800c0022100008040008e80e80065
:103ecc00110878001e80fb00ea00b9008000780021
:103edc00e002210000804000e40047003118780027
:103eec00211078001e80fb00ea00b90080007800e9
:103efc0020032100008140006000b8000089be0052
:103f0c0010c0b300050037001e4fe8001e407800bb
:103f1c00e94f5000dcff36000040eb000080fa0057
:103f2c00000006000200fa00000f78001e00780066
:103f3c000000e00003003200e10f500020003200ce
:103f4c002300370001e1a9002028a9004206200027
:103f5c008000eb00c0022100d6f207000028a90067
:103f6c000142800000072000010070000042880020
:103f7c000421ef00703e20004008880001088000fa
:103f8c000030200001007000000888000021a8000b
:103f9c000041a90001088000f0fc2f0000806000a7
:103fac000040a0000008880001e1a8002028a8001b
:103fbc0010c0b3002af0b70010c0b30005003700e2
:103fcc002028a9002a70ef0010c0b30001003700b0
:0c3fdc000040eb000080fa00000006002e
:020000040000fa
:103fe800d21000002a000000820000004e6f74000a
:103ff800205072006573730065640000507265009c
:10400800737365006420200020200000526564005e
:104018002020000047726500656e0000426c750044
:1040280065200000181000000c000000800000004f
:10403800241000000600000082000000004000007c
:104048008000b0000010000018000000820000008e
:104058000000000000000000601b000000000000dd
:104068000000b8001b0000000000000000121c0047
:10407800181100001a000000800000002c10000039
:1040880064000000800000002a1000000200000008
:104098008000000090100000420000008200000034
:1040a8009410960010961000010003000000000014
:1040b80000000000000000000000d2000600000020
:1040c8000000000000760600400600000000000026
:1040d80000000000000000000000000000000000d8
:1040e80000000000000000000000000000000000c8
:1040f8000000000000000000fc1000001c00000090
:1041080082000000286e69006c29000068076c00b6
:10411800094c83006a907400a07ac000008068008f
:10412800880084006c8200008100000032110000c9
:0c413800020000008000000000000000f9
:020000040000fa
:104144000000fa0010002300307c88006009200081
:10415400407c88008c2fef0010042000507c8800e5
:1041640010102000707c880060092000807c88008a
:1041740010042000907c88009a2fef00b82fef00e5
:10418400ba2fef00002def00a02fef00a42fef00b7
:10419400a62fef00a82fef00aa2fef00ae2fef00fd
:1041a400b02fef00b22fef00220020008007200084
:1041b400a109200053f82000804978008149780043
:1041c400824978000001eb006004200071052000a2
:1041d40043f82000804978008149780082497800ba
:1041e4000080fa00000006000000fa00216d800043
:1041f40000fc2f00008060000000a000206d8800fb
:0c42040079fa07000080fa0000000600b4
:020000040000fa
:020000040005f5
:047e0000ffffff0081
:020000040000fa
:020000040005f5
:047e2000ffffff0061
:020000040000fa
:020000040005f5
:047e30007affff00d6
:020000040000fa
:020000040005f5
:047e3800b9ffff008f
:020000040000fa
:020000040005f5
:047e40007f7fff0041
:020000040000fa
:020000040005f5
:047e4800ffffff0039
:020000040000fa
:020000040005f5
:047e5000ddffff0053
:020000040000fa
:020000040005f5
:047e58000000ff0027
:020000040000fa
:020000040005f5
:047e60000000ff001f
:020000040000fa
:020000040005f5
:047e68000000ff0017
:020000040000fa
:020000040005f5
:047e70000000ff000f
:020000040000fa
:020000040005f5
:047e7800ffffff0009
:020000040000fa
:020000040005f5
:047e8000fffcff0004
:020000040000fa
:020000040005f5
:047e8800ffffff00f9
:020000040000fa
:020000040005f5
:047ff800ffffff0088
:020000040000fa
:020000040100f9
:04300000ffffff00cf
:00000001FF
